:400000000080002011000000210700002107000008B5044B1A6803F53F5302331A6000F09FFB00BFFA46004010B5054C237833B9044B13B10448AFF300800123237010BD8D
:40004000A081FF1F0000000084430000084B10B51BB108490848AFF300800848036803B910BD074B002BFBD0BDE81040184700BF00000000A481FF1F84430000C880FF1FC4
:4000800000000000024A136801331360704700BFBC81FF1F000000002DE9704382B0324C2368636000F0CAFDA060304B83FB0023C017C0EBA30063681844E06000F012FEDB
:4000C00005462061E668304601F042FB00F0D0FF23A3D3E9002301F01FF880468946284600F0A4FF42464B4601F040F901F026FA6061A36943B3013B032B22D8DFE803F00B
:4001000002080E1732461A491A4802F025F818E02A461749174802F01FF812E000F0A8FF02460B461449134802F016F809E000F09FFFCDE900012B46324610490D4802F083
:400140000BF80C4800F0AAFC002000F0C5FD0022054B1A6002B0BDE8708300BFAFF300808DEDB5A0F7C6B03EBC81FF1FABAAAA2A884300002482FF1F90430000984300006E
:400180002DE9F04F87B062B600F09CFB00F0FCFB00F046FD00F0ECFD00F076FD9C4800F081FD00F0B7FC9B4800F0C2FC00F028FC0C2000F067FC984800F070FC974C052061
:4001C000206200F0ADFB206A4008013880B200F0ADFB00F039FC002800F0028100F080FB012840F0FD8000F019FC8C4B83F824000A2840F0EE801E4603F12C0403F128021E
:400200008749204601F0CCFF8649204601F0F4FF0746854D28608549204601F0EDFF804668608349204601F0E7FF8146A8608149204601F0E1FF0190E8607F49204601F09C
:40024000DBFF029028617D49204601F0D5FF039068617B49204601F0CFFF0490A8617949204601F0C9FF0590E8617749204601F0C3FF834628627549204601F0BDFF824632
:4002800068627349204601F0B7FFA862B26A511E704B99421DD806F12C056F49284601F05BFF284600F0FAFBB06A306280B200F037FBB36A012B02D10022F26403E05B08C5
:4002C000013B564AD364554BB3F84C0000F02EFB74E01FB9614800F0E1FB6FE0B9F1000F0ED14E4C606900F0C3FE2C3402460B465B49204601F030FF204600F0CFFB5DE01F
:40030000B8F1000F0ED1454C606900F0B1FE2C3402460B465349204601F01EFF204600F0BDFB4BE0019B5BB93C4B03F12C041A694D49204601F010FF204600F0AFFB3DE0F4
:40034000029B5BB9354B03F12C04DA684649204601F002FF204600F0A1FB2FE0039B1BB900222E4B9A6129E0049B1BB901222B4B9A6123E0059B1BB90222284B9A611DE0E0
:40038000BBF1000F03D10322244B9A6116E0BAF1000F03D10422214B9A610FE058B91F4B03F12C049A693149204601F0D5FE204600F074FB02E02E4800F070FB174C1E22BE
:4003C000002104F12C0001F04EFA0023E361A36206E0124AD369D11881F82C000133D36100F032FB00283FF4F4AE00F079FA00287FF4EFAE00F012FB084B83F824000A28CC
:4004000002D11C4800F04AFB00F02AFBE1E600BF8500000099000000BC430000BC81FF1FD4430000D8430000CC80FF1FE0430000E8430000F4430000044400001044000080
:4004400020440000304400004044000050440000604400007D9698006C4400008444000090430000B0440000DC44000088430000E4440000FC440000FEE700BFF0B4002241
:40048000174611E050F82760F3B226F0FF0608E001EB420511F812406D78A5550132013BDBB2002BF4D10137212FEBD9F0BC70470E4B1B78DBB203F007010D4A11701B09FF
:4004C000013213704023A2F2627213703032137002F68E1213700132137004321370033213704422034B1A70704700BFCF0100496E5800407658004008B50A46002101F0D1
:40050000B2F908BD38B50122284B1A801823284A137017210232118002321370192502321580023213700222224B1A7008224FF040231A70032103F5007319701E4B1B7807
:40054000DBB21E490B701E4B1A8041F25122023B1A8000240CE01B4B1B7803F0010343EA440404F003044FF4F07000F00DFC013D0DB1032CEFD115B90320FFF77DFF124BD5
:400580004FF480721A8007221A7000220F490A704820023108701A700222033B1A700C4A137843F00703137038BD00BF80400040824000400043004008010049A1460040E9
:4005C00022420040254200400440004006400040A243004008B501F03BF908BD38B572B63C4A137843F00403137000240CE03A4D630019194A0011462A44084691882858D5
:40060000FFF77AFF0134E4B2082CF0D900240CE03148A20011194B000344B3F84020D96B986BFFF7D7FF0134E4B2012CF0D92B494FF09040FFF722FF40F20322284B1A80BF
:4006400002F1804202F5A732137843F0020313701032137843F002031370224C237843F040032370A2F58632513A137843F01003137008221C491D48FFF7ACFF0A221C49C1
:400680001C48FFF7A7FF08221B491C48FFF7A2FF0A221B491B48FFF79DFF08221A491B48FFF798FF1A4A137843F008031370194D61232B70FFF726FF81232B700122164B9C
:4006C0001A70FFF7F5FE0E2221461448FFF782FF38BD00BFE846004020450000880000484C580040A0430040F406004802510040FC060048C0510040080700481251004055
:4007000010070048205100401C07004832510040224300400048004004000840B043004008B501F069F803680C2B00D1FEE7FEE708B5094B1A681044084BC31AB3F5007F45
:4007400002DC054B186005E001F056F80C2303604FF0FF32104608BDF880FF1F4882FF1F08B5104E104D16E029686B68AC68002204E051F8040B43F8040B0432A242F8D1A3
:40078000E868002203E0002143F8041B04328242F9D11035013E002EE6D101F033F8FFF7EFFCFEE7010000007848000008B5104A104B1A60104A136843F400731360002398
:4007C0000AE0032B03D80D4A52F8231000E00C490C4A42F8231001332F2BF2D90A4B1A780A4B1A70074A0A4B1A60FFF7F7FE08BD0004FA050CED00E014ED00E0000000008E
:40080000210700000080FF1FBC760040C080FF1F08ED00E0054A137843F0040313701032137843F004031370704700BFA74300400F490B7803F0FC0200F0030313430B70F9
:4008400001280AD10B4B1B78DBB20B4A13700B4B1B78DBB2013213707047094B1B78DBB2054A1370074B1B78DBB201321370704742580040120100493446004016010049CE
:40088000B1010049B901004908B50120FFF7D0FF0B4B1A7802F0DF021A701A7802F0FB021A701A7842F008021A7003F295231A7802F0E7021A701A7842F008021A7008BD2E
:4008C0004258004008B5054B1B7823B9FFF7DCFF0122024B1A70FFF79DFF08BD1482FF1F024B1878C0F38000704700BF21510040014B1870704700BF83640040014B187847
:40090000704700BF63640040014B1880704700BF04680040014B188880B2704784680040014B1880704700BF44680040014B1880704700BF6468004008B501E0FFF7EAFF0A
:40094000FFF7DCFF10F0400FF8D108BD08B5FFF7F3FF0A20FFF7E4FF0020FFF7D5FF0020FFF7C6FFFFF7CAFF0420FFF7DFFF00F013FA044A137843F01003137000F010FA0C
:4009800008BD00BF9364004008B5044B1B7823B9FFF7DCFF0122014B1A7008BD1582FF1F7222084B1A70202201331A700622A3F5B1731A70472210331A70002203F5A87373
:4009C0001A7070478A65004010B500F0E5F904460A4A137843F0200313700132137843F010031370023A137843F01003137000F067F8204600F0D4F910BD00BF9A6500409E
:400A000008B5054B1B7823B9FFF7CAFF0122024B1A70FFF7D9FF08BD1682FF1F084B1B78DBB213F0200F06D0064A1078C0B213F01E0F02D17047002070470020704700BF4C
:400A40006B6500404A650040044B1B7813F0200F01D0012070470020704700BF6B65004008B500F099F9064B1A7842F001021A701A7802F0FE021A7000F092F908BD00BF26
:400A80009A650040034B1B7813F0040FFAD1024B18707047696500404965004038B5074B1B782BB938BDFFF7EDFF0134A4B201E005460024285D0028F5D138BD1682FF1F27
:400AC000054A137843F0040313701032137843F004031370704700BFA2430040704700BF014B1B685864704708ED00E04001C0B2014B1870704700BF01E400E00222014B7B
:400B00001A60704700E100E00222014B1A60704780E100E008B5FFF7F7FF0448FFF7E0FF0720FFF7E3FFFFF7E9FF08BDDD0A000010B50446FFF7E8FF2046FFF7D1FF07204F
:400B4000FFF7D4FFFFF7DAFF10BD00BF084A137843F0010313701032137843F00103137002F64D32137843F001031370704700BFA3430040014B1870704700BF034F0040FF
:400B8000014B1880704700BF044F0040014B1880704700BF064F004008B51E4A137803F0010313701C4B1A7802F0FC021A701A7802F0F3021A701A7842F00C021A701A78CB
:400BC00002F07F021A701A7842F080021A701A78D2B21A7009331A7802F0CF021A701A7842F030021A701A7802F0F0021A701A7842F00F021A70094A137843F001031370F6
:400C00001720FFF7BDFF1720FFF7C0FF0020FFF7B1FF08BD004F0040024F0040014F004008B5054B1B7823B9FFF7B6FF0122024B1A70FFF78BFF08BD1882FF1F024B1B8896
:400C4000024B1888C0B27047064F0040084F0040704700BF014B1B68D864704708ED00E04001C0B2014B1870704700BF03E400E00822014B1A60704700E100E00822014B83
:400C80001A60704780E100E008B5FFF7F7FF0448FFF7E0FF0720FFF7E3FFFFF7E9FF08BD510C000010B50446FFF7E8FF2046FFF7D1FF0720FFF7D4FFFFF7DAFF10BD00BF96
:400CC000014B1870704700BF87640040014B1878704700BF67640040014B1860704700BF04640040024B1B78024B1868704700BF0464004044640040014B1868704700BF4B
:400D000044640040014B1860704700BF24640040014B1860704700BF3464004008B501E0FFF7EAFFFFF7D2FF10F0400FF8D108BD08B5FFF7F3FF6FF00100FFF7E3FF002099
:400D4000FFF7CAFF0020FFF7BBFFFFF7BFFF6FF00200FFF7DDFF00F01FF8044A137843F01003137000F01CF808BD00BF9764004008B5044B1B7823B9FFF7DAFF0122014BD8
:400D80001A7008BD1982FF1F0230800803D000BF01380046FCD17047EFF3108072B6704780F31088704700BF81F0004102E000BF83F0004330B54FEA41044FEA430594EA9F
:400DC000050F08BF90EA020F1FBF54EA000C55EA020C7FEA645C7FEA655C00F0E2804FEA5454D4EB5555B8BF6D420CDD2C4480EA020281EA030382EA000083EA010180EA86
:400E0000020281EA0303362D88BF30BD11F0004F4FEA01314FF4801C4CEA113102D0404261EB410113F0004F4FEA03334CEA133302D0524263EB430394EA050F00F0A780D2
:400E4000A4F10104D5F1200E0DDB02FA0EFC22FA05F2801841F1000103FA0EF2801843FA05F359410EE0A5F120050EF1200E012A03FA0EFC28BF4CF0020C43FA05F3C0186E
:400E800051EBE37101F0004507D54FF0000EDCF1000C7EEB00006EEB0101B1F5801F1BD3B1F5001F0CD349085FEA30004FEA3C0C04F101044FEA445212F5800F80F09A809B
:400EC000BCF1004F08BF5FEA500C50F1000041EB045141EA050130BD5FEA4C0C404141EB010111F4801FA4F10104E9D191F0000F04BF01460020B1FA81F308BF2033A3F1DB
:400F00000B03B3F120020CDA0C3208DD02F1140CC2F10C0201FA0CF021FA02F10CE002F11402D8BFC2F1200C01FA02F120FA0CFCDCBF41EA0C019040E41AA2BF01EB04513D
:400F4000294330BD6FEA04041F3C1CDA0C340EDC04F11404C4F1200220FA04F001FA02F340EA030021FA04F345EA030130BDC4F10C04C4F1200220FA02F001FA04F340EA37
:400F80000300294630BD21FA04F0294630BD94F0000F83F4801306BF81F480110134013D4EE77FEA645C18BF7FEA655C29D094EA050F08BF90EA020F05D054EA000C04BF6E
:400FC0001946104630BD91EA030F1EBF0021002030BD5FEA545C05D14000494128BF41F0004130BD14F580043CBF01F5801130BD01F0004545F0FE4141F470014FF000004D
:4010000030BD7FEA645C1ABF194610467FEA655C1CBF0B46024650EA013406BF52EA033591EA030F41F4002130BD00BF90F0000F04BF0021704730B54FF4806404F13204D6
:401040004FF000054FF0000150E700BF90F0000F04BF0021704730B54FF4806404F1320410F0004548BF40424FF000013EE700BF42004FEAE2014FEA31014FEA02701FBF51
:4010800012F07F4393F07F4F81F06051704792F0000F14BF93F07F4F704730B54FF4607401F0004521F0004120E700BF50EA010208BF704730B54FF000050AE050EA010281
:4010C00008BF704730B511F0004502D5404261EB41014FF4806404F132045FEA915C3FF4DCAE4FF003025FEADC0C18BF03325FEADC0C18BF033202EBDC02C2F1200300FAC2
:4011000003FC20FA02F001FA03FE40EA0E0021FA02F11444C1E600BF70B54FF0FF0C4CF4E06C1CEA11541DBF1CEA135594EA0C0F95EA0C0F00F0DEF82C4481EA030621EA0C
:401140004C5123EA4C5350EA013518BF52EA033541F4801143F4801338D0A0FB02CE4FF00005E1FB02E506F00042E0FB03E54FF00006E1FB03569CF0000F18BF4EF0010E2D
:40118000A4F1FF04B6F5007F64F5407404D25FEA4E0E6D4146EB060642EAC62141EA55514FEAC52040EA5E504FEACE2EB4F1FD0C88BFBCF5E06F1ED8BEF1004F08BF5FEAF2
:4011C000500E50F1000041EB045170BD06F0004646EA010140EA020081EA0301B4EB5C04C2BFD4EB0C0541EA045170BD41F480114FF0000E013C00F3AB8014F1360FDEBF47
:40120000002001F0004170BDC4F10004203C35DA0C341BDC04F11404C4F1200500FA05F320FA04F001FA05F240EA020001F0004221F0004110EBD37021FA04F642EB0601C3
:401240005EEA430E08BF20EAD37070BDC4F10C04C4F1200500FA04F320FA05F001FA04F240EA020001F0004110EBD37041F100015EEA430E08BF20EAD37070BDC4F1200581
:4012800000FA05F24EEA020E20FA04F301FA05F243EA020321FA04F001F0004121FA04F220EA020000EBD3705EEA430E08BF20EAD37070BD94F0000F0FD101F00046400070
:4012C00041EB010111F4801F08BF013CF7D041EA060195F0000F18BF704703F00046520043EB030313F4801F08BF013DF7D043EA0603704794EA0C0F0CEA135518BF95EA92
:401300000C0F0CD050EA410618BF52EA4306D1D181EA030101F000414FF0000070BD50EA410606BF1046194652EA430619D094EA0C0F02D150EA013613D195EA0C0F05D190
:4013400052EA03361CBF104619460AD181EA030101F0004141F0FE4141F470014FF0000070BD41F0FE4141F4780170BD70B54FF0FF0C4CF4E06C1CEA11541DBF1CEA13556F
:4013800094EA0C0F95EA0C0F00F0A7F8A4EB050481EA030E52EA03354FEA013100F088804FEA03334FF0805545EA131343EA12634FEA022245EA111545EA10654FEA002651
:4013C0000EF000419D4208BF964244F1FD0404F5407402D25B084FEA3202B61A65EB03055B084FEA32024FF480104FF4002CB6EB020E75EB030E22BFB61A754640EA0C00AB
:401400005B084FEA3202B6EB020E75EB030E22BFB61A754640EA5C005B084FEA3202B6EB020E75EB030E22BFB61A754640EA9C005B084FEA3202B6EB020E75EB030E22BFD1
:40144000B61A754640EADC0055EA060E18D04FEA051545EA16754FEA06164FEAC30343EA52734FEAC2025FEA1C1CC0D111F4801F0BD141EA00014FF000004FF0004CB6E72B
:4014800011F4801F04BF01430020B4F1FD0C88BFBCF5E06F3FF6AFAEB5EB030C04BFB6EB020C5FEA500C50F1000041EB045170BD0EF0004E4EEA113114EB5C04C2BFD4EBC0
:4014C0000C0541EA045170BD41F480114FF0000E013C90E645EA060E8DE60CEA135594EA0C0F08BF95EA0C0F3FF43BAF94EA0C0F0AD150EA01347FF434AF95EA0C0F7FF4F7
:4015000025AF104619462CE795EA0C0F06D152EA03353FF4FDAE1046194622E750EA410618BF52EA43067FF4C5AE50EA41047FF40DAF52EA43057FF4EBAE12E74FEA410218
:40154000B2F1E04324BFB3F5001CDCF1FE5C0DD901F0004C4FEAC0024CEA5070B2F1004F40EB830008BF20F00100704711F0804F21D113F13872BCBF01F00040704741F48C
:4015800080114FEA5252C2F11802C2F1200C10FA0CF320FA02F018BF40F001004FEAC1234FEAD32303FA0CFC40EA0C0023FA02F34FEA4303CCE77FEA625307D150EA0133C5
:4015C0001EBF4FF0FE4040F44000704701F0004040F0FE4040F40000704700BF80F0004002E000BF81F0004142001FBF5FEA410392EA030F7FEA226C7FEA236C6AD04FEA7D
:401600001262D2EB1363C1BFD218414048404140B8BF5B42192B88BF704710F0004F40F4000020F07F4018BF404211F0004F41F4000121F07F4118BF494292EA030F3FD0B8
:40164000A2F1010241FA03FC10EB0C00C3F1200301FA03F100F0004302D5494260EB4000B0F5000F13D3B0F1807F06D340084FEA310102F10102FE2A51D2B1F1004F40EB8A
:40168000C25008BF20F0010040EA03007047490040EB000010F4000FA2F10102EDD1B0FA80FCACF1080CB2EB0C0200FA0CF0AABF00EBC25052421843BCBFD0401843704717
:4016C00092F0000F81F4000106BF80F400000132013BB5E74FEA41037FEA226C18BF7FEA236C21D092EA030F04D092F0000F08BF0846704790EA010F1CBF0020704712F06E
:401700007F4F04D1400028BF40F00040704712F100723CBF00F50000704700F0004343F0FE4040F4000070477FEA226216BF08467FEA23630146420206BF5FEA412390EA97
:40174000010F40F4800070474FF0000304E000BF10F0004348BF40425FEA000C08BF704743F0964301464FF000001CE050EA010208BF70474FF000030AE000BF50EA0102F9
:4017800008BF704711F0004302D5404261EB41015FEA010C02BF84460146002043F0B64308BFA3F18053A3F50003BCFA8CF2083AA3EBC25310DB01FA02FC634400FA02FCA7
:4017C000C2F12002BCF1004F20FA02F243EB020008BF20F00100704702F1200201FA02FCC2F1200250EA4C0021FA02F243EB020008BF20EADC707047014B1868704700BF8D
:401800005C81FF1F0E4B70B51E460E4C0025E41AA410A54204D056F8253098470135F8E703F018F8084B094C1E46E41AA4100025A54204D056F8253098470135F8E770BDE3
:401840006048000060480000604800006848000010B5431E0A44914204D011F8014B03F8014FF8E710BD03460244934202D003F8011BFAE770472DE9F04788B0149F002B11
:401880001E461299B8BF03F1004327F02007B6BF1E4600232D23462F1446109DDDF84CA00B7003D0452F03D1013501E0032300E0022307AA049206AA03928DE82804224637
:4018C000334600F039FD472F804602D1119BDB0728D5462F08EB050911D198F80030302B0AD1002200232046314602F0DBFC18B9C5F10105CAF80050DAF8003099440022D6
:4019000000232046314602F0CDFC08B9302202E0CDF81C9006E0079B994503D9591C07911A70F8E74046079B159AC8EB0303136008B0BDE8F087034673B50029B8BF49425B
:4019400003F8022BB4BF2D222B22092942701ADD0DF1070216460A2591FBF5F405FB1411092C01F1300102F8011D2146F4DC3031541E02F8011CB4421A460AD214F8012B2E
:4019800003F8012BF7E71A463024214402F8024B5970101A02B070BD2DE9F04F91B00C46DDF8688016461F46054601F05DFA03681846099300F02AFC00230E93D8F80030B8
:4019C0000A90073323F0070303F1080294F81890D4F800B0C8F80020D3E90023C4E91223D4F84CA0D4F848802AF000430B934FF0FF32A74B40460B9902F086FCA0B94FF0C8
:401A0000FF32A34B40460B9902F060FC60B9002200234046514602F04FFC10B12D2384F843309C4B9C4A0AE0424653464046514602F06AFC002800F09281984B984AB9F170
:401A4000470F8CBF90469846032323612BF0040323604FF0000A3DE0B9F1670F00F08A81B9F1470F00F0868123600193636800210DF13302059002920093424653460691A0
:401A8000CDF81090CDF80CE02846FFF7F4FE09F0DF03472B804600F08481B9F1650F0D9900F28D8101394A4604F150000D91FFF742FF0E9A82468318012A236100F37C8160
:401AC0002268D10700F178819DF8333013B12D2384F84330009733460FAA2146284600F09FF9013002D14FF0FF3096E123685A0501D4236965E0B9F1650F40F2D580D4E99E
:401B000012010022002302F0CDFB78B30123654A31462846B8470130E5D00E9B0D9A9A420BDB2368D80708D423689B0740F111814FF0000804F1190906E10A9B099A31467F
:401B40002846B8470130CED04FF0000804F11A090E9B013B9845E7DA01234A4631462846B8470130BFD008F10108F1E70D9B002B29DC01234B4A31462846B8470130B2D0ED
:401B80000D9B23B90E9B13B92368D907CCD50A9B099A31462846B8470130A4D04FF0000904F11A0A0D9B5B42994509DA0123524631462846B847013095D009F10109F1E7D6
:401BC0000E9B4246A7E00E9AA36D9A42A8BF1A46002A914606DC4FF0000A29EAE97904F11A0B11E01346314642462846B8470130F1D178E701235A4631462846B847013036
:401C00003FF471AF0AF1010AA36DC9EB03029245F0DB08EB03090D9A0E9B9A420FDB2368DA070CD40E9B0D9A9844C9EB08089B1A9845A8BF9846B8F1000F08DC0FE00A9B88
:401C4000099A31462846B8470130EBD14BE743464A4631462846B84701303FF444AF4FF0000928EAE87804F11A0A09E00123524631462846B84701303FF435AF09F10109C2
:401C80000D9A0E9B9B1AC8EB03039945EEDB4BE7FFFFEF7F6E45000072450000764500007A450000EE4600000E9A012A01DCDB0738D50123424631462846B84701303FF476
:401CC00012AF0A9B099A31462846B84701303FF40AAFD4E912010022002302F0E3FA20B14FF0000804F11A090EE00E9B08F10102013B19E001234A4631462846B847013035
:401D00003FF4F1AE08F101080E9B013B9845F1DB534604F1500231462846B84701307FF403AFE0E64246012331462846B8470130EED1D8E601234A4631462846B84701305A
:401D40003FF4D1AE08F10108E3680F9A9B1A9845F0DBE0680F9B9842B8BF18465DE062680EA8531C0DF1340E4BF480637FF474AE062201E012B90122626075E600210691CE
:401D80000DF133018DE80C00236005904246CDF81090CDF80CE0029153462846FFF76BFD80460D9BD81C02DB626893421DDDA9F102095FFA89F970E60133236184E6B9F148
:401DC000660F14D10029636807DD216113B92268D2071DD501330B4419E013B92268D00701D5023313E0012311E04FF067090D9B0E9A934205DB22682361D10708D50133A7
:401E000005E0002BD4BFC3F102030123134423610D9B4FF0000AA36556E611B0BDE8F08F2DE9F04791461F460A698B6806469342B8BF1346C9F8003091F843200C46DDF849
:401E4000208012B10133C9F800302368990642BFD9F800300233C9F80030256815F0060510D104F1190A07E00123524639463046C04701301AD00135E368D9F800209B1A11
:401E80009D42F1DB94F843302268003318BF012392060FD5E118302081F843005A1C94F845102244023382F8431003E04FF0FF30BDE8F08704F1430239463046C0470130AC
:401EC000F4D02268D9F80050E36802F00602042A08BF5D1B2269A3680CBF25EAE57500259342C4BF9B1AED184FF000091A344D4509D00123224639463046C0470130D5D061
:401F000009F10109F3E70020BDE8F0872DE9F04317460A7E85B06E2A984606460C460C9B01F1430E00F0AE8011D8632A22D009D8002A00F0BB80582A40F0CA8081F8452090
:401F4000834955E0642A1ED0692A1CD0C0E0732A00F0B08009D86F2A2ED0702A40F0B8800A6842F020020A603EE0752A24D0782A3AD0ADE01A6801F14205111D1960136897
:401F800084F84230A8E021681A6811F0800F02D0111D196008E011F0400F02F10401196002D0B2F9003000E01368002B3CDA2D225B4284F8432037E021681A6811F0800F28
:401FC00002D0111D196007E011F0400F02F10401196001D0138800E01368227E5C496F2A14BF0A2208221BE078225A4984F845202268186812F0800F00F104051D6003D1F3
:40200000550601D5038800E00368D00744BF42F0200222601BB9226822F0200222601022002084F8430001E049490A226568002DA56008DB206820F0040020602BB9002D16
:402040007DD175460CE0002B79D07546B3FBF2F002FB1033CB5C05F8013D03460028F5D1082A0BD12368DA0708D5236962689A42DEBF302305F8013C05F1FF35C5EB0E0335
:4020800023612EE008681A6810F0800F496903D0101D1860136808E010F0400F02F104001860136801D0198000E0196000232361754616E01A68111D19601568002162689B
:4020C000284600F0DDFE08B1401B6060636804E004F1420584F8422001232361002384F84330CDF800803B4603AA21463046FFF797FE013002D14FF0FF3026E023692A4601
:4021000039463046C0470130F5D023689B0710D5002504F1190907E001234A4639463046C0470130E7D00135E368039A9B1A9D42F2DBE068039B9842B8BF184605E00B7864
:4021400004F1420584F842308AE705B0BDE8F0837E4500008F4500000EB400B54FF402719CB0ADF814106FF00041049107914FF6FF711DAB02900690084853F8042BADF83D
:402180001610006802A9019301F070FA029B00221A701CB05DF804EB03B070475C81FF1F0EB430B59CB01FAC4FF4017254F8045BADF814200290069000F028F80B4B039020
:4021C0000B9300230F9314934FF6FF7307900848ADF816302A46234602A90068019401F095FB1CB0BDE8304003B07047F52100005C81FF1F0020704710F8012B11F8013B9E
:40220000012A28BF9A42F7D0D01A7047034613F8012B002AFBD1181A013870472DE9F74F03690C6980469C427FDC013C01F114074FEA840E00F1140606EB0E0357F824508F
:40224000019356F824300135B3FBF5F507EB0E09C5B34FF0000A3846B446D34650F8043B9AB205FB02A21B0C4FEA124A05FB03A392B2C2EB0B0BBCF800204FEA134A5A4417
:402280001FFA83FBDCF800308145CBEB134303EB224392B242EA03424FEA234B4CF8042BDCD256F80E306BB9019B043B9E421A4602D3C8F8104005E01268043B002AF8D1A0
:4022C000013CF3E7404600F0F6FF00282BDB304601354FF0000E57F8042B036891B2C1EB0E0E120C99B27144C2EB134303EB214389B24FEA234EB94541EA034340F8043B03
:40230000E9D256F8242006EB840362B9043B9E421A4602D3C8F8104005E01268043B002AF8D1013CF3E7284600E0002003B0BDE8F08F0000000000002DE9F04F456A95B023
:402340008246219CCDE9022345B9102000F090FDCAF82400456085600560C560DAF82430196859B15A68012393404A608B60504600F0C9FDDAF8243000221A60039BA04AC3
:40238000002BBDBF01232360039B0023BCBF23F000430393DDF80C80A8BF236028F000431B0D1B0593421DD142F20F73209A1360029B43B9934A944BC8F31300002814BFF5
:4023C0001846104600E09048229B002B00F04685C37813B100F1080300E0C31C229A136000F03CBDDDE90245002200232046294601F058FF074658B1209A01231360229B29
:40240000002B00F01E8581481860013800F026BD12AB019313AB009322462B46504600F0C5FFC8F30A56049056B1C5F3130343F07F51204641F44011A6F2FF3611971DE0E7
:40244000139B129E1E4406F23243202B0ADD029A06F21240C3F1400322FA00F008FA03F3184304E0C3F12000029B03FA00F0FEF7DDFD0123A1F1F871013E11930022644BDD
:40248000FEF796FC58A3D3E90023FEF745FE58A3D3E90023FEF78EFC044630460D46FEF7D5FD55A3D3E90023FEF736FE02460B4620462946FEF77EFC04460D4601F03AFFAC
:4024C0000022834600232046294601F0F5FE58B15846FEF7BBFD02460B462046294601F0E1FE08B90BF1FF3BBBF1160F0DD8DDE90223484901EBCB01D1E9000101F0FAFEFE
:4025000030B10BF1FF3B002300E00123109300E01090129B9E1B731E079343BFC3F10008002307934FF00008BBF1000F06DB079BCDF82CB05B440793002705E00023CBEBEA
:402540000808CBF100070B931E9B092B28D8052BC4BF043B1E931E9BC8BF0025A3F10203D8BF0125032B20D8DFE803F0060E0204012302E0012308E000230A931F9B002BEE
:402580001DDD9946059321E000230A931F9B0BEB030909F10103012B0593B8BF012315E0012500231E930A9501E001230A934FF0FF390022CDF8149012231F9206E04FF093
:4025C00001094B46CDF81490CDF87C90DAF8244000226260042101F114029A421CD86268490001326260F6E761436F63A787D23FB3C8608B288AC63FFB799F501344D33F6C
:402600000000F07FA0450000A9450000EF4600000000F83FB84500006168504600F03EFCDAF8243020601B680693059B0E2B00F25B81002D00F05881DDE90234BBF1000F50
:40264000CDE90E3430DD9F4A0BF00F034FEA2B1502EBC303E80618CBCDE908340CD5DDE90E01994B05F00F05D3E90823FEF77EFE0324CDE9020100E00224934E6DB1E907A0
:4026800008D5DDE90801D6E90023FEF745FDCDE9080101346D100836F0E7DDE90823DDE90201FEF763FE20E0CBF1000505B3DDE90E01844B05F00F0203EBC203D3E900230A
:4026C000FEF72AFDCDE902017F4E2D110023022455B1EA0705D5D6E90023FEF71DFD013401236D100836F3E71BB1CDE9020100E00224109BE3B1DDE902560022734B2846CB
:40270000314601F0D9FD98B1059B8BB1B9F1000F40F3E6800BF1FF330893314600226C4B2846FEF7F9FC0134CDE902014E4602E0059ECDF820B02046FEF788FCDDE902230D
:40274000FEF7EAFC634B0022FEF734FBA1F1507304460C931D46D6B9DDE9020100225E4BFEF726FB22460C9BCDE9020101F0C2FD002840F03F820C99224601F10043DDE917
:40278000020101F099FD002840F02B82A8E00A9A4C4B711E002A49D003EBC103D3E9002300204E49FEF7E2FD22462B46FEF700FBCDE90C01069CDDE9020101F0BBFD0546EE
:4027C000FEF744FC02460B46DDE90201FEF7F0FADDE90C23303504F8015BCDE9020101F06BFD002840F01D83DDE9022300203749FEF7DEFADDE90C2301F05EFD002840F0B6
:40280000D180069BE31AB3426ADADDE90C0100222F4BFEF781FC0022CDE90C01DDE902012B4BFEF779FCCDE90201C4E703EBC1012246D1E900012B46FEF76EFC069BCDE9A3
:402840000C011D469C19DDE9020101F073FD0646FEF7FCFB02460B46DDE90201FEF7A8FA303605F8016BAC42CDE902014FF0000222D11A4BDDE90C01FEF79CFA02460B46D2
:40288000DDE9020101F036FD002840F08B80DDE90C2300201149FEF78BFA02460B46DDE9020101F009FDD8B114F8013C621E302B40F0B7821446F7E7054BFEF72DFCCDE914
:4028C0000201C0E7B8450000904600000000F03F0000244000001C40000014400000E03FDDE90E34CDE90234139B002B7CDBBBF10E0F79DCAB4B03EBCB03D3E900671F9B28
:40290000002B14DA059B002B11DC40F06C810022A54B30463946FEF7FFFBDDE9022301F0DFFC059D2E46002840F05F8165E1069CDDE9028932463B4640464946FEF716FD5F
:4029400001F0F8FC0546FEF781FB32463B46FEF7E3FB0B46024649464046FEF729FA05F1300E069B04F801EBC3EB040E059B73452DD102460B46FEF71DFA804689460246CF
:402980000B463046394601F097FC78B942464B463046394601F086FC002800F04482EB0704D440E2DDF820B000E01C4614F8012C631E392A07D1069A9A42F6D106993022C1
:4029C0000BF1010B0A701A7801321A702BE20022764BFEF7A1FB002200238046894601F061FC0028A6D01EE20A9A002A2BD01E9A012A0ADC119A12B103F2334302E0129BC5
:402A0000C3F136033D46444613E0059B5D1EAF42BFBF0B9BEA1B9B180B93059BB6BF2F467D1B0025002BA7BF4446059BC3EB08040023079A01211A4450469844079200F028
:402A400001FB064602E03D4644460A9E5CB1079B002B08DDA342A8BF2346079AC3EB0808E41AD31A0793002F1DDD0A9BABB18DB131462A46504600F07FFB049A014606469F
:402A8000504600F0E8FA04990890504600F03BFA089B04937A1B06D000E03A460499504600F06AFB04900121504600F0CBFA0B9B05465BB31A460146504600F05DFB1E9BF3
:402AC0000546012B18DC029B83B9039BC3F3130373B9039B23F000473F0D3F054FB1079B08F1010801330793012702E0002700E0029F0B9B73B100E000272B6905EB830375
:402B0000186900F052FAC0F1200004E01E9B012BD9DD0B9F0120079B184410F01F0008D0C0F12003042B02DDC0F11C0002E006D018461C30079B8044034404440793B8F17F
:402B4000000F05DD42460499504600F063FB0490079B002B05DD29461A46504600F05AFB0546109B23B32946049800F0A4FB00281EDA00230A220499504600F0DBF90A9BFD
:402B80000BF1FF3B0490002B00F05F81314600230A22504600F0CEF9B9F1000F06463FDC3BE000BFB84500000000144000002440059B002B2BDC1E9B022B28DDDDF8149058
:402BC000B9F1000F11D129464B460522504600F0B1F901460546049800F06DFB00280CDC03E0354600E000252E461F9B069C6FEA030B09E03546DDF820B0069B069A5C1CF1
:402C0000312313700BF1010B05960026F7E00A9BDDF8149023B9069CB2E01E9B022BCFDC002C05DD31462246504600F0F3FA06469FB17168504600F031F90446326906F1FD
:402C40000C01023292000C30FEF702FE01222146504600F0DFFA059000E00596029B069F03F00103079329460498FFF7D7FA3146044600F13008049800F01DFB059A0290F3
:402C80002946504600F033FBC36802463BB901460A90049800F00FFB0A9A034600E00123114650460A9300F02EF90A9B53B91E9A42B9079A32B9B8F1390F2AD0029B002BDE
:402CC0001CDC1DE0029A002A04DB1BD11E9ACAB9079ABAB9002B13DD01220499504600F099FA2946049000F0E6FA002803DC07D118F0010F04D0B8F1390F0AD004F1310874
:402D00007C1C0CE0002B07F101040BDDB8F1390F03D139233B70013756E008F1010887F800806CE0069B2746E31A4B4504F8018C3BD000230A220499504600F0FBF8059B44
:402D400004909E424FF00A024FF000033146504604D100F0EFF80646059084E700F0EAF8002306460A220599504600F0E3F8059079E700230A220499504600F0DBF8049013
:402D800029460498FFF74AFA069B00F1300804F8018BE31A4B45ECDB069B0596B9F1010FACBF4B4401331F46002601220499504600F030FA2946049000F07DFA002803DC98
:402DC00015D118F0010F12D03C4614F8013C621E392B09D1069B934204D10BF1010B3123069A02E01446F0E70133137007E03C4614F8013C621E302B01D11446F8E7294652
:402E0000504600F080F8059B6BB12EB19E4203D03146504600F077F80599504600F073F801E0DDF820B00499504600F06CF80023209A23700BF101031360229B1BB11C6056
:402E400001E008480AE0069808E0B9F1000F3FF7E2AE1E9B022B7FF7DEAEB1E615B0BDE8F08F00BFEE460000004870476081FF1F024B0146186800F041BB00BF5C81FF1F1F
:402E800010B5C9B202449042034605D01C7801308C42F8D1184610BD002010BD70B5456A04460E463DB91020FFF7E2FF6062456085600560C560656AEB6843B1636ADB68BD
:402EC00053F8260078B1026843F8262017E021220421204600F0B8FA636AE860DB68002BECD1002070BD012101FA06F56A1D9200204600F0A9FA0028F3D046608560002396
:402F00000361C36070BD70B5446A06460D463CB91020FFF7ADFF7062446084600460C4603DB1736A6A68DB6853F82210296043F8225070BD2DE9F04106460C460D691F4642
:402F400001F1140E0023DEF80000013381B202FB0171000C0F0C02FB007089B201EB00419D424FEA10474EF8041BECDCD7B1A3689D4212DB616830460131FFF78FFF8046BC
:402F8000226904F10C01023292000C30FEF760FC21463046FFF7B7FF444604EB850301355F6125612046BDE8F081030C1B0413B90004102300E0002310F07F4F04BF0002E8
:402FC000083310F0704F04BF0001043310F0404F04BF80000233002803DB420003D5581C70471846704720207047036813F007020BD0D90722D49A074BBF5B089B08036042
:4030000003604CBF01200220704799B209B91B0C102213F0FF0F04BF1B0A0832190704BF1B090432990704BF9B080232D90702D45B0805D0013203601046704700207047B0
:403040002020704710B50C460121FFF727FF01224461026110BD2DE9F74F14460A69236988469A42BEBF0B46A0461C46D8F81070D4F81090D8F80830D8F8041007EB0906EE
:403080009E42C8BF0131FFF709FF00F114052B4605EB860C0022634502D243F8042BFAE704F1140208F1140102EB890301EB87070093009B0192934257D9B2F800B0BBF1BB
:4030C000000F23D08946AE464FF0000859F8044BBEF800A0A3B20BFB03A34FEA144ADEF8004043444FEA14480BFB0A84F24604EB13449BB243EA04434F454FEA14484AF8C6
:40310000043B01D9D646E1E7CEF80480019B0432B3F802A0BAF1000F21D02C4689462B684FF00008B9F800E0B4F802B09BB20AFB0EBEA346F04443EA08434BF8043B59F8EE
:40314000043BB4F804E01B0C0AFB03E34F4503EB18434FEA134801D95C46E3E763600435A7E75CF8043D13B9013E002EF9DC066103B0BDE8F08F00002DE9F843154612F09E
:40318000030206460F4607D0214C013A002354F82220FFF7CFFE0746AD1036D0746A3CB91020FFF765FE7062446084600460C460D6F82480D8F808404CB940F2712130465F
:4031C000FFF740FF04460023C8F8080003604FF00008EB070AD5394622463046FFF73BFF814639463046FFF78EFE4F466D100CD0206808B10446ECE7224621463046FFF798
:403200002AFF2060C0F80080F4E73846BDE8F883804600002DE9F0470C460746914626694FEA621A56444968A368751CAB4202DA01315B00FAE73846FFF730FE00238046BE
:403240001A4600F11401534503DA41F823200133F9E72AEAEA73206901EB830319F01F0904F1140101EB800E14D0C9F1200C002208689A4600FA09F0024343F8042B51F89B
:40328000042B8E4522FA0CF2F2D8CAF8042042B1B51C06E0043B51F8042B8E4543F8042FF9D8013D3846C8F810502146FFF72BFE4046BDE8F08703690A6910B59B1A11D190
:4032C00092001430143183180A4453F8044D52F8041D8C4202D007D3012010BD9842F4D3002010BD184610BD4FF0FF3010BD2DE9F8430C460746114620461546FFF7DBFF8F
:40330000061E08D131463846FFF7C8FD012303614661BDE8F883BCBF23462C4638466168BABF1D4601260026FFF7B8FD2B69C660266905F1140904F1140101EB860709EB4D
:40334000830800F114054FF0000C51F8042B59F8044B93B29C44A3B2240CC3EB0C03C4EB124202EB23429BB24FEA224CC84543EA02428E4645F8042BE7D8BE450ED25EF8EF
:40338000041B8AB26244131403EB114392B242EA03424FEA234C45F8042BEEE755F8043D0BB9013EFAE70661BDE8F8832DE9F3411C4601219046089E099DFFF76FFDC4F303
:4033C0001302C4F30A5407460CB142F480120192B8F1000F19D002A840F8088DFFF705FE009B48B1019AC0F1200102FA01F10B43C2407B61019200E07B61019B002B14BF29
:4034000002210121BB61396107E001A8FFF7EDFD019B01217B613961203034B1A4F2334404443460C0F1350009E0A0F2324007EB810330601869FFF7B8FDC0EB4110286046
:40344000384602B0BDE8F08138B502FB01F4214600F054F8054618B122460021FEF703FA284638BD38B50546002944D051F8043C0C1F002BB8BFE41800F08CFE1E4A13686E
:40348000114613B96360146030E0A3420DD92268A018834201BF18685B681218226063600C6023E0A24203D813465A68002AF9D118681918A1420BD12168014458188242AF
:4034C000196013D110685268014419605A600DE002D90C232B6009E021686018824201BF106852680918216062605C602846BDE8384000F050BE38BD2082FF1F70B5CD1C37
:4035000025F0030508350C2D38BF0C25002D064601DBA94202D90C23336046E000F03AFE234B1C681A462146A1B10B685B1B0ED40B2B03D90B60CC18CD501EE08C420BBFBB
:4035400063684B681360636018BF0C4615E00C464968E9E7174C23681BB9304600F082FC20602946304600F07DFC431C18D0C41C24F00304A0420DD12560304600F00BFE3C
:4035800004F10B00231D20F00700C31A0ED05A42E25070BD211A304600F064FC0130EBD10C233360304600F0F6FD002070BD00BF2082FF1F1C82FF1F2DE9F0478E68824662
:4035C0009E420C46914698463ED88A8912F4906F3AD02568096902236F1A656905EB450595FBF3F57B1C43449D4238BF1D4653050FD52946FFF782FF064698B13A46216967
:40360000FEF726F9A38923F4906343F08003A38113E02A4600F0C0FD064670B921695046FFF720FF0C23CAF80030A3894FF0FF3043F04003A381BDE8F08726613E442660AC
:4036400046466561ED1BA560464528BF464649463246206800F083FDA36800209B1BA36023681E442660BDE8F08700002DE9F04F9DB003938B8980461C060D4616460DD5B6
:403680000B695BB94021FFF739FF2860286118B90C23C8F80030CDE040236B610023099320238DF82930DFF89CB130238DF82A3037463C4614F8013B1BB9B7EB060910D034
:4036C00003E0252BF9D02746F3E74B46324629464046FFF771FF013000F0A780099B4B4409933B78002B00F0A08000234FF0FF3204930793059206938DF853301A9301264E
:40370000052221784E48FFF7BBFB671C049B38B14B4A3C46801A06FA00F018430490EFE7D90644BF20228DF853201A0744BF2B228DF8532022782A2A03D0079A00210A20E4
:403740000BE0039A111D12680391002A10DA524243F00200079204900BE027463B780134303B092B03D800FB02320121F5E701B107923B782E2B1ED17B782A2B0AD1039B8D
:4037800002371A1D1B680392002BB8BF4FF0FF33059310E0002319460593781C0A2407463A780130303A092A03D804FB01210123F5E703B10591032239782248FFF760FB66
:4037C00040B14023CBEB000003FA00F0049B013718430490397806221B487E1C8DF82810FFF74EFB88B1194B33B9039B073323F007030833039314E003AB00932A46144BE7
:4038000004A94046FEF7C8F807E003AB00932A460F4B04A94046FEF779FBB0F1FF3F824603D0099B5344099342E7AB895B0601D4099801E04FF0FF301DB0BDE8F08F00BF8E
:40384000B8460000BE460000C246000099190000B93500004B1C70B50E46144602D14FF0FF3070BD9389CDB223F020039381536B526883B1A36B9A4207DA23685A1E226015
:4038800003F8016C636801331FE0214600F02EFC0028F2D0E3E72169236851B1994208D213F8011C8D4204D1013B0132236062600CE0E36304F1440363630323A363234658
:4038C000226403F8466F236001236360284670BD10B50C46496B69B104F14403994201D0FFF7C0FD236C00206063636013B1E36B236010BD23694FF0FF3023600023636013
:40390000A38943F02003A38110BD00002DE9F04FDFF89C9207460D46CA46ADF5257D01930023469347939E4B0DF10C08A2939D4BDFF874B2CDF82081A3931478002C00F003
:403940002781D9F8003023445B7803F0080303F0FF01F3B16B68002B10DD2B68DAF800001978014449780C0710D5479901330131479169682B6001396960EBE7A39B2946F4
:40398000384600929847009A0028E6D0561C3246D3E7252C02F1010652D14391459153782A2B02BF1023961C43930A2231783446A1F13003092B06F1010605D8459B02FB48
:4039C0000313303B4593F1E703227748FFF758FA40B134460123CBEB000003FA00F0439B03434393661C2478672C16D8652C7FD2472C07D8452C7BD2002C00F0CB80252CF5
:403A00001ED077E05B2C51D002D8582C3ED071E0632C57D0642C3FD06CE0702C32D007D86E2C55D03AD8692C64D1002344933BE0752C31D0782C29D0732C5BD102233FE0C0
:403A40006B68002B0DDD2B681A78944240F0A08001336A682B60479B013A01336A60479395E7A39B2946384698470028EBD04698002800F08F80AB8913F0400F18BF4FF083
:403A8000FF3089E0439B43F020034393439B43F400734393102302E00A2300E008236E2C449301DD04230BE0032309E03146404600F0E8F90646439B43F0400343930123E1
:403AC00049931BE0439B43F0400343930023F7E7439AD0063FF55BAF12F0010F019A479B02F104010191126814BF138013604EE70523E5E7032349930A2344936B68002B3A
:403B000003DD439B590611D518E0A39B2946384698470028F5D0AAE7479A013247926A68013A002A6A6013DD01332B602B68DAF800101A780A4452781207EDD4499B022B5B
:403B40000DDC01AB2A4643A9384600F033F819E0A39B2946384698470028E7D087E7042B06DC01AB2A4643A9384600F089F809E00E4B002B3FF40BAF01AB2A4643A9384683
:403B8000AFF30080012803D002287FF400AF6EE7469801E04FF0FF300DF5257DBDE8F08F55380000D1380000BE460000000000009881FF1F2DE9F84315468A6880460C46CA
:403BC00032B98A69002A0CBF01224FF0FF328A602268DFF8A890D10658BF1A684FF000065EBF111D19601768A069F8B923680136DA065EBF2B681B783B702A686B6802F142
:403C000001022A60A26803F1FF3302F1FF326B6058BF0137A260E2B1002BE5DCD4F880312946404698470028DED012E0012806D12B681A7863699B5C002BD7D119E0022811
:403C400007D12B68D9F800201B7813445B781B07CCD5236813F0100305D1E2680132E260A26902B13B70236900201E442661BDE8F883002EEDD1BDE8F88300BF9881FF1F12
:403C80002DE9F04F0C469A46724B87B08346164693E8070003ABA76883E807006E4BA1696E4A04F11C09032918BF1A467B1EB3F5AE7F84BF40F25D13A360236888BF6FF430
:403CC000AE7543F4506323604B4600928CBF7F1900274FF000083168019303AB53F8280002220978FFF7CCF8019B002833D0B8F1010F0BD162682AB908226260226842F45E
:403D000000722260226822F4A0620CE0B8F1020F0AD1226802F4C061B1F5007F1BD11021616042F480722260A268511EA16092B132685D1C511C316012781A707368013B25
:403D4000002B736006DCD4F88031314658469847002841D12B4608F10108B8F1030FBAD162680AB90A22626062683D496069891A019300F087F8019B4FF000081D46A36874
:403D800063B3316860690A78805C38B3302A226808D1100506D508F1010857B10133013FA36006E022F4106222600B78013505F8013C7368013B002B736003DD336801336D
:403DC000336005E0D4F8803131465846984728B9A368013BA360D2E74FF000082368D9050CD54D4508D915F8011C6F1ED4F87C313246584698473D464D4527D0226812F035
:403E000010021BD12A70636849465846009EB0472268DAF8003012F0200F07D1D20705D51A1DCAF800201B68188004E01A1DCAF800201B681860E3680133E3602369C9EBE7
:403E4000050545441D442561002000E0012007B0BDE8F08FCC460000F13F0000E53E0000E846000038B5064C0023054608462360FCF75EFC431C02D1236803B12B6038BD7D
:403E80004482FF1F70B50B78441E5E2B13BF4A1C8A1C4B78002108BF012100F1FF0504F8011FAC42FBD10BB9501E70BD81F001041146C4540D784A1C2D2D06D05D2D0FD04D
:403EC0000DB12B46F4E7084670BD4E785D2EF8D0B342F6DC023101339E42C454FBDCE9E7104670BD2DE9F0470F4680463F48D0F800903D4615F8014B09EB0400407800F011
:403F0000080000F0FF0608B12F46F2E72D2C03D1BD1C7C78012603E02B2C04BF7C78BD1C13B1102B0AD15BE0302C57D1287800F0DF0058284DD16C7810230235002E14BF9D
:403F40004FF0004C6FF0004CBCFBF3FA0027384603FB1ACC09EB040E9EF801E01EF0040F01D0303C0BE01EF0030E1BD0BEF1010F0CBF4FF0370E4FF0570ECEEB0404A342B6
:403F800010DDB7F1FF3F0AD0504506D801D1644503DC03FB0040012701E04FF0FF3715F8014BD7E77B1C0CD1002E4FF0220314BF4FF000406FF00040C8F800302AB9BDE845
:403FC000F08706B1404272B107B1691E1160BDE8F0873024002BB1D10823AFE70A23ADE7302CA3D0AAE7BDE8F08700BF9881FF1F2DE9F0470E4680463B48D0F80090354670
:4040000015F8014B09EB0400407800F0080000F0FF0708B12E46F2E72D2C03D1B51C7478012703E02B2C04BF7478B51C13B1102B0AD153E0302C4FD1287800F0DF0058283F
:4040400045D16C78102302354FF0FF3CBCFBF3FC03FB0CFA00266FEA0A0A304609EB040E9EF801E01EF0040F01D0303C0BE01EF0030E1AD0BEF1010F0CBF4FF0370E4FF093
:40408000570ECEEB0404A3420FDD002E08DB604506D801D1544503DC03FB0040012601E04FF0FF3615F8014BD8E7002E07DA2223C8F800304FF0FF302AB9BDE8F08707B1F0
:4040C000404272B106B1691E1160BDE8F0873024002BB9D10823B7E70A23B5E7302CABD0B2E7BDE8F08700BF9881FF1F2DE9F0410C46496B04F1440399421AD14FF48061C0
:40410000FFF7FCF918B94FF0FF30BDE8F0814FF48063A36394F84630606380F8FF3394F8453000F2FD30437094F844300370206012E0A66B77003A4600F02EF8054600285B
:40414000E1D000EB0608014632464046FDF780FBC4F800806563A7630020BDE8F081884210B501EB020301D8421E0BE09842FBD28118D21AD34204D013F8014D01F8014D44
:40418000F8E710BD994204D011F8014B02F8014FF8E710BD70477047F8B5074615460E4621B91146BDE8F840FFF7A8B91AB9FFF759F92846F8BD00F015F885420ED9294685
:4041C0003846FFF79BF9044650B131462A46FDF73FFB31463846FFF745F901E03046F8BD2046F8BD51F8040C0028BEBF091851F8043CC018043870474FF0FF3C06E000BF75
:404200004FF0010C02E000BF4FF0010C4DF804CD4FEA410C7FEA6C5C4FEA430C18BF7FEA6C5C1BD001B050EA410C0CBF52EA430C91EA030F02BF90EA020F0020704710F1BE
:40424000000F91EA030F58BF994208BF90422CBFD8176FEAE37040F0010070474FEA410C7FEA6C5C02D150EA013C07D14FEA430C7FEA6C5CD6D152EA033CD3D05DF8040BEE
:40428000704700BF8446104662468C461946634600E000BF01B5FFF7B7FF002848BF10F1000F01BD4DF808EDFFF7F4FF0CBF012000205DF808FB00BF4DF808EDFFF7EAFF89
:4042C00034BF012000205DF808FB00BF4DF808EDFFF7E0FF94BF012000205DF808FB00BF4DF808EDFFF7CEFF94BF012000205DF808FB00BF4DF808EDFFF7C4FF34BF01200A
:4043000000205DF808FB00BF4FEA410C7FEA6C5C02D150EA013C0AD14FEA430C7FEA6C5C02D152EA033C02D14FF0000070474FF0010070474FEA410212F5001215D211D541
:404340006FF47873B3EB625212D94FEAC12343F0004343EA505311F0004F23FA02F018BF404270474FF00000704750EA013005D111F0004008BF6FF0004070474FF000000C
:40438000704700BF0000000025690A0D0000000025660A0D0000000025692025692025660A0D0000496E7465727275707420547269676765726564200A200D0054726967CB
:4043C00067657220617373616D626C6564200A0D00000000256900000D2A49444E3F00000D667265710000000D667265715F696E740000000D747269675F6672616D6573DD
:40440000000000000D73776565705F74696D65000D5365744D6F64655F6E6F726D616C000D5365744D6F64655F74696D650000000D5365744D6F64655F636F756E74000085
:404440000D5365744D6F64655F667265710000000D5365744D6F64655F616C6C000000000D4765744D6F646500000000436F756E74206368616E67656420746F3A2025698B
:404480000A0D000050534F4320354C5020547269676765723B204C61737456657273696F6E3A32302F30392F32303232200A0D004672657175656E6379206F66207468658E
:4044C0002074726967676572207369676E616C3A20256620487A200A0D00000025640A0D000000004E4F5420535550504F5254454420434F4D4D414E440D0A0057616974CA
:4045000020756E74696C20746865206C6173657220737765657020656E64730D0A000000004F00400C00405100403000F05100401000000001400010001401400006801AFF
:404540000140800100400140000A004C014000020050014020000000605200406C0600480600001A01407406004880004300494E4600696E66004E414E006E616E00303187
:404580003233343536373839414243444546003031323334353637383961626364656600496E66696E697479004E614E00504F534958002E00000000000000000000F03F21
:4045C000000000000000244000000000000059400000000000408F40000000000088C34000000000006AF8400000000080842E4100000000D01263410000000084D7974156
:404600000000000065CDCD41000000205FA00242000000E876483742000000A2941A6D42000040E59C30A2420000901EC4BCD64200003426F56B0C430080E03779C341433E
:4046400000A0D8855734764300C84E676DC1AB43003D9160E458E143408CB5781DAF154450EFE2D6E41A4B4492D54D06CFF08044F64AE1C7022DB544B49DD9794378EA4457
:4046800005000000190000007D000000000000000080E03779C34143176E05B5B5B89346F5F93FE9034F384D321D30F94877825A3CBF737FDD4F1575232D302B2000686C41
:4046C0004C0065666745464700000000EA460000ED460000F0460000412D46612D66383930313233343536375D002B2D00303000785800002020202020202020202828289F
:40470000282820202020202020202020202020202020202088101010101010101010101010101010040404040404040404041010101010101041414141414101010101014E
:4047400001010101010101010101010101010110101010101042424242424202020202020202020202020202020202020202021010101020000000000000000000000000B6
:4047800000000000000000000000000000000000000000000000000000000000000000000000000000000000000000000000000000000000000000000000000000000000F9
:4047C00000000000000000000000000000000000000000000000000000000000000000000000000000000000000000000000000000000000000000000000000000000000B9
:404800000000000000000000000000000000000000000000000000000000000000000000000000000000000000000000000000000000000000000000000000000000000078
:404840000000000000000000000000000000000000000000F8B500BFF8BC08BC9E4670474D000000AD070000F8B500BFF8BC08BC9E4670472900000088480000C880FF1FDA
:40488000D8000000A80000000000000001000000010000000100000001000000010000000100000001000000010000000100000001000000010000004882FF1F0000000085
:4048C000F44700001448000034480000000000000000000000000000000000006C4500000000000000000000000000000000000000000000000000000000000000000000F4
:4049000000000000000000000000000000000000000000000000000000000000FC80FF1FB3450000BD460000BD460000BD460000BD460000BD460000BD460000BD460000D0
:40494000BD460000BD460000FFFFFFFFFFFFFFFFFFFFFFFFFFFF0000F346000000000000000000000000000000000000000000000000000000000000000000000000000006
:4049800000000000000000000000000000000000000000000000000000000000000000000000000000000000000000000000000000000000000000000000000000000000F7
:4049C00000000000000000000000000000000000000000000000000000000000000000000000000000000000000000000000000000000000000000000000000000000000B7
:404A00000000000000000000000000000000000000000000000000000000000000000000000000000000000000000000000000000000000000000000000000000000000076
:404A40000000000000000000000000000000000000000000000000000000000000000000000000000000000000000000000000000000000000000000000000000000000036
:020000040003F7
:0200000480007A
:40000000024F004001520040015A004002640040046500404C0201402903014041040140230501404306014024070140390801401F090140010B0140010D01403F140140B6
:400040001715014043180140341901400C1A0140361B014004400140074101400E420140044301400345014004460140024701400248014001490140044C0140094D0140ED
:40008000075001400151014001800A870102D70483678767850D890F8A728B3807011A0120012801330136013E404016410249FF4AFF4BFF4DA04F015018580459045A04DE
:4000C0005F016040628064406540668068406A506BA86C406D206E506FA8880191029B039E02A401B002B101B202B302B401B601B8A0BE50BF04C051C102C550C6C4C72EA3
:40010000C83FC9FFCAFFCBFFCDAFCE07CF01D018D407D804D904DA04DB04DF05E040E280E440E540E680E840EA50EBA8EC40ED20EE50EFA8001008400F08102014401720C1
:4001400018111B111C021D80210222042720302031023F08400142084590460848A14F205101529459605A0862147B0183048521C002C241C454CC05CE40D03CD228D60EF7
:40018000D806DE08E604000118011D012001210129023102350136013E403F014031410249FF4AFF4BFF4DA04F015018580459045A045F0160406280644065406680684089
:4001C0006A506BA86C406D206E506FA89A039C01A801B201B602BE04C034C102C9FFCAFFCBFFCDAFCE07CF01D018D804DA04DF01E040E280E440E540E680E840EA50EBA839
:40020000EC40ED20EE50EFA8010202800B040E020F041080140819401C101D081E02234428082902308040104140420845184640874098089A089D40A080A280A510AC4842
:40024000C008C2C2C448CA05CC08D0EEEE0839203F104034410249FF4AFF4BFF4DAF4E074F01501859045A045F016040628064406540668068406A506BA86C406D206E5054
:400280006FA888018F039102A603B101B202B302B601BE40BF04C031C102C524C6C0C70EC81FC9FFCAFFCBFFCDAFCE07CF01D018D407D804D904DA04DB04DF01E040E28047
:4002C000E440E540E680E840EA50EBA8EC40ED20EE50EFA80010102018101940210222042404251031023980400441484518464048204B015140525459405A085B20621472
:40030000832195809E40A108A510B304C002C404CC01CE08D0EED60ED806EE20100130013E0158045F018580871388108AAC8C098ED08F0C9203941499719B0E9CDC9D2CED
:400340009E229F43A010A240A308A40CA671A971AA20AB06B01FB1C0B330B4E0B70FB90ABA20BB80BF04C003C540C9FFCA07CBFFCC40CD20CEF0CF05D008D804D904DA0405
:40038000DC22DD02DF01E040E1A8E240E3200040012009800A400B200E401090120419101A401D012040218422402922301031903848410448804902500451085204C0035D
:4003C000C21DC40ECA05CC0CCE0AD002EE08E6042E01340136014010410449FF4AFF4BFF4DA04F045018528058045A045B045C015D115F01604062C06440654066C068C0F9
:400400006AC06CC06EC0820494029E04A603B002B201B404BE10C060C104C5D0C612C80EC9FFCAFFCBFFCDAFCE0FCF04D018D405D804DA04DB04DC01DD11DF01E040E2C070
:40044000E440E540E6C0E8C0EAC0ECC0EEC006800E111002162018011A011B101E584001428046804F2156A05E485F017002C010C2A0C421D089D220D6D0E8103B80590460
:400480005C205F018003818082148413860C87328820894C8B128D4C8E088F22900A92149340950C962099049C209D7EA108A220A413A540A604A701A972AA15AB0CB010A2
:4004C000B101B220B380B40FB50EB77CB808BA20BBA0BE01BF04C023C106C5E0C6BCC80EC9FFCAFFCBFFCEF0CF44D00CD401D804D904DA04DB04DC22DD22DF01E6C0EA406E
:40050000EB0200500240032809400AA010101204130119201A401B242150221523052540268028202A022B0830283281380439A03B024108432049114B025040524053104B
:4005400059015A485B20904092809720981099109A049D20A108B501C00FC20DC40ECA07CC0FCE0FD006D204D60F8A0192029A01AE02B002B201BE05D418D804DB04DD20A0
:40058000DF01001601400280042009080B450D010F8810A81580181019121B401F0520452108234031083240384239144015410148015010514059105D02670A69146A8065
:4005C00070A872028C218D40930594149C209E02A280A304A428B440B720C04FC25FC48ECC0ACE0FD00FD208D684D830E810338436103708CCF0530183019F0CA610A78059
:40060000D480E6201308500853805B0687029A029F0CA780AE12C410D420D640E640EE1072029A02B008DC2001108140C00201409540AD10C0024002D0082408C820B4042D
:400640009C02A002B402EC02128074028E80A002B402C408DE04E202E808000508010A010C0410061A021C0400BF00008088000040000000FF22005100E7CB00CFE730001A
:400680004101000EC300000082440031F4000B003C80C300200000001000000030000000000000000307F060048038180000080000001040320504000100EC000CFFFFFF9B
:4006C00062A0F0410C000000000002110404040422220001000000000000400200103010001010120000000000000000000000000000000000020200020040008000408801
:400700008800880000000000000B0B00000000000400000400000000000000000000000000004000000000000000000000000000000000000000000000000000000000004B
:400740000000000000000000000000000000000000000000000000000000000000000000000000000000000000000000000000000000000000000000000000000000000079
:400780000000000000000000000000000000000000000000000000000000000000000000000000000000000000000000000000000000000000000000000000000000000039
:4007C00000000000000000000000000000000000000000000000000000000000000000000000000000000000000000000000000000000000000000000000000000000000F9
:4008000000000000000000000000000000000000000000000000000000000000000000000000000000000000000000000000000000000000000000000000000000000000B8
:0200000490006A
:0400000000004005B7
:0200000490105A
:04000000BC90ACAF55
:0200000490303A
:020000001AC61E
:0200000490402A
:4000000000000000000000000000000000000000000000000000000000000000000000000000000000000000000000000000000000000000000000000000000000000000C0
:400040000000000000000000000000000000000000000000000000000000000000000000000000000000000000000000000000000000000000000000000000000000000080
:400080000000000000000000000000000000000000000000000000000000000000000000000000000000000000000000000000000000000000000000000000000000000040
:4000C0000000000000000000000000000000000000000000000000000000000000000000000000000000000000000000000000000000000000000000000000000000000000
:0200000490501A
:0C00000000012E16106900012E342B2F79
:00000001FF