:400000000080002011000000410800004108000008B5044B1A6803F53F5302331A6000F02FFC00BFFA46004010B5054C237833B9044B13B10448AFF300800123237010BDBA
:400040007881FF1F00000000D0460000084B10B51BB108490848AFF300800848036803B910BD074B002BFBD0BDE81040184700BF000000007C81FF1FD0460000C880FF1F76
:400080000000000007E0A3F16102D2B2192A01D8203B037001300378002BF4D1704700BF024A136801331360704700BF9481FF1F08B5024800F084FD08BD00BF3847000050
:4000C00010B5054C02460549204601F0CBFF204600F076FD10BD00BF9881FF1F4047000010B510B9FFF7ECFF10BD054B1C1D5A6D0449204601F0B6FF204600F061FD10BDBA
:400100009481FF1F4C47000010B510B9FFF7D8FF10BD074CA06D01F043F8043402460B460449204601F09EFF204600F049FD10BD9481FF1F5447000010B510B9FFF7C0FFB9
:4001400010BD054B1C1DDA6D0449204601F08AFF204600F035FD10BD9481FF1F5C47000008B510B9FFF7ACFF08BD024800F028FD08BD00BF6447000070B582B0324C2568AE
:4001800000F0EEFD314B83FB0023C017C0EBA3002844606500F038FE0546E065646D002C0FDD01F007F90646204601F007F9284901F058F90146304601F008FA224B9865F1
:4001C00002E00022204B9A651F4B1B6E002B33D0013B032B27D8DFE803F002080E1922461C491D4801F03EFF20E02A461B491A4801F038FF1AE0144CA06D00F0D1FF0246EF
:400200000B461749201D01F02DFF0FE00E4B986D00F0C6FFCDE900012B46224611490E4801F020FF02E00022074B1A71064B1B7913B1094800F0C4FC002000F0DFFD0022C8
:40024000014B1A6002B070BD9481FF1FABAAAA2ABD3786354C4700009881FF1F5C470000544700009447000010B5012803D8002000F01CFE10BD0446012000F017FE054B6B
:400280001C60A0B200F0DCFB6008013880B200F0DDFB10BDCC80FF1FF8B5044600E001342378202BFBD0092BF9D0002B51D03F21204601F027FF20B1427822B902700127F4
:4002C00002E0002700E000272021204601F01AFF054640B1002305F8013B00E001352B78202BFBD000E01B4D2046FFF7CBFE27B92B7813B12846FFF7C5FE002624E033019D
:40030000154AD158204601F00BFF08B101361BE047B1114B03EB06139B681BB90020FFF7CFFEF8BD47B90C4B03EB0613DB681BB90020FFF7C5FEF8BD074B03EB06167368E5
:40034000294638469847F8BD052ED8D90020FFF7B7FEF8BD3C470000D846000010B550B12E4B1C1D1A6E2E49204601F07BFE204600F026FC10BD0C462A49204601F0D0FE81
:4003800020B12949204601F0CBFE18B90022234B1A6640E02549204601F0C2FE20B12449204601F0BDFE18B901221C4B1A6632E02049204601F0B4FE20B11F49204601F015
:4003C000AFFE18B90222154B1A6624E01B49204601F0A6FE48B11A49204601F0A1FE20B11849204601F09CFE18B903220B4B1A6611E01549204601F093FE20B1134920460D
:4004000001F08EFE18B90422044B1A6603E00020FFF756FE10BDFFF74BFE10BD9481FF1F4C470000A0470000A4470000A8470000B04700000C480000B4470000244800001A
:40044000B8470000C4470000C8470000CC47000010B582B00023019350B1114C114B1A681149204601F0FEFD204600F0A9FB14E00C4601AA0D49204601F018FE012804D10E
:40048000019810B10A4B984203D90020FFF718FE03E0FFF7E9FEFFF70BFE02B010BD00BF9881FF1FCC80FF1F5C470000D04700007F96980038B562B600F094FA00F0F4FA45
:4004C00000F040FC00F0E6FC00F070FC2D4800F07BFC00F0B1FB2C4800F0BCFB00F022FB2A4800F06DFB2A4B1868FFF7BDFE00F03DFB70B300F084FA01282AD100F020FBAA
:400500000D2826D00A280FD1224C94F864302344002583F8685004F16800FFF7BDFE84F8645084F8685014E01A4B93F864303E2B07D8184A591C82F86410134483F8680000
:4005400007E0144B002083F8640083F86800FFF7B7FD00F00BFB0028C9D000F051FA0028C5D100F0EDFA0A2802D10120FFF7A8FD00F008FB074B002283F8642083F86820F8
:40058000B5E700BFA100000079010000D4470000CC80FF1F9481FF1FFEE700BFF0B40022174611E050F82760F3B226F0FF0608E001EB420511F812406D78A5550132013B02
:4005C000DBB2002BF4D10137222FEBD9F0BC70470E4B1B78DBB203F007010D4A11701B09013213704023A2F2627213703032137002F68E12137001321370043213700332B6
:4006000013704422034B1A70704700BFCF0100496E5800407658004008B50A46002101F0A8F808BD38B50122284B1A801823284A137017210232118002321370192502325F
:400640001580023213700222224B1A7008224FF040231A70032103F5007319701E4B1B78DBB21E490B701E4B1A8041F25122023B1A8000240CE01B4B1B7803F0010343EA8D
:40068000440404F003044FF4F07000F015FC013D0DB1032CEFD115B90320FFF77DFF124B4FF480721A8007221A7000220F490A704820023108701A700222033B1A700C4A53
:4006C000137843F00703137038BD00BF80400040824000400043004008010049A146004022420040254200400440004006400040A243004008B501F031F808BD38B572B6D2
:400700003C4A137843F00403137000240CE03A4D630019194A0011462A44084691882858FFF77AFF0134E4B2082CF0D900240CE03148A20011194B000344B3F84020D96B5C
:40074000986BFFF7D7FF0134E4B2012CF0D92B494FF09040FFF722FF40F20322284B1A8002F1804202F5A732137843F0020313701032137843F002031370224C237843F05C
:4007800040032370A2F58632513A137843F01003137008221C491D48FFF7ACFF0A221C491C48FFF7A7FF08221B491C48FFF7A2FF0A221B491B48FFF79DFF08221A491B4811
:4007C000FFF798FF1A4A137843F008031370194D61232B70FFF726FF81232B700122164B1A70FFF7F5FE0E2221461448FFF782FF38BD00BFE84600404C4800008C000048F2
:400800004C580040A04300405C0700480251004064070048C0510040700700481251004078070048205100408407004832510040224300400048004004000840B043004053
:4008400008B500F05FFF03680C2B00D1FEE7FEE708B5094B1A681044084BC31AB3F5007F02DC054B186005E000F04CFF0C2303604FF0FF32104608BDD080FF1F5082FF1FB1
:4008800008B5104E104D16E029686B68AC68002204E051F8040B43F8040B0432A242F8D1E868002203E0002143F8041B04328242F9D11035013E002EE6D100F029FFFFF7BC
:4008C000F9FDFEE701000000A84B000008B5104A104B1A60104A136843F40073136000230AE0032B03D80D4A52F8231000E00C490C4A42F8231001332F2BF2D90A4B1A7829
:400900000A4B1A70074A0A4B1A60FFF7F7FE08BD0004FA050CED00E014ED00E000000000410800000080FF1FBC760040C080FF1F08ED00E0054A137843F0040313701032E6
:40094000137843F004031370704700BFA74300400F490B7803F0FC0200F0030313430B7001280AD10B4B1B78DBB20B4A13700B4B1B78DBB2013213707047094B1B78DBB253
:40098000054A1370074B1B78DBB201321370704742580040120100493446004016010049B1010049B901004908B50120FFF7D0FF0B4B1A7802F0DF021A701A7802F0FB02CF
:4009C0001A701A7842F008021A7003F295231A7802F0E7021A701A7842F008021A7008BD4258004008B5054B1B7823B9FFF7DCFF0122024B1A70FFF79DFF08BD3C82FF1F00
:400A0000024B1878C0F38000704700BF21510040014B1870704700BF83640040014B1878704700BF63640040014B1880704700BF04680040014B188880B2704784680040AD
:400A4000014B1880704700BF44680040014B1880704700BF6468004008B501E0FFF7EAFFFFF7DCFF10F0400FF8D108BD08B5FFF7F3FF0A20FFF7E4FF0020FFF7D5FF0020ED
:400A8000FFF7C6FFFFF7CAFF0420FFF7DFFF00F01BFA044A137843F01003137000F018FA08BD00BF9364004008B5044B1B7823B9FFF7DCFF0122014B1A7008BD3D82FF1F79
:400AC0007222094B1A70202203F581731A700622A3F5B1731A70472210331A70002203F5A8731A70704700BF8964004010B500F0EBF904460A4A137843F02003137002F534
:400B00008172137843F010031370023A137843F01003137000F066F8204600F0D9F910BD9964004008B5054B1B7823B9FFF7C8FF0122024B1A70FFF7D9FF08BD3E82FF1FBA
:400B4000084B1B78DBB213F0200F06D0064A1078C0B213F01E0F02D17047002070470020704700BF6B6500404A650040044B1B7813F0200F01D0012070470020704700BF37
:400B80006B65004008B500F09FF9064B1A7842F001021A701A7802F0FE021A7000F098F908BD00BF9A650040034B1B7813F0040FFAD1024B187070476965004049650040A2
:400BC00038B5074B1B782BB938BDFFF7EDFF0134A4B201E005460024285D0028F5D138BD3E82FF1F054A137843F0040313701032137843F004031370704700BFA24300408B
:400C0000704700BF014B1B685864704708ED00E04001C0B2014B1870704700BF01E400E00222014B1A60704700E100E00222014B1A60704780E100E008B5FFF7F7FF04482C
:400C4000FFF7E0FF0720FFF7E3FFFFF7E9FF08BD010C000010B50446FFF7E8FF2046FFF7D1FF0720FFF7D4FFFFF7DAFF10BD00BF084A137843F0010313701032137843F0F6
:400C80000103137002F64D32137843F001031370704700BFA3430040014B1870704700BF034F0040014B1880704700BF044F0040014B1880704700BF064F004008B51E4A78
:400CC000137803F0010313701C4B1A7802F0FC021A701A7802F0F3021A701A7842F00C021A701A7802F07F021A701A7842F080021A701A78D2B21A7009331A7802F0CF028D
:400D00001A701A7842F030021A701A7802F0F0021A701A7842F00F021A70094A137843F0010313701720FFF7BDFF1720FFF7C0FF0020FFF7B1FF08BD004F0040024F004032
:400D4000014F004008B5054B1B7823B9FFF7B6FF0122024B1A70FFF78BFF08BD4082FF1F024B1B88024B1888C0B27047064F0040084F0040704700BF014B1B68D864704733
:400D800008ED00E04001C0B2014B1870704700BF03E400E00822014B1A60704700E100E00822014B1A60704780E100E008B5FFF7F7FF0448FFF7E0FF0720FFF7E3FFFFF78B
:400DC000E9FF08BD750D000010B50446FFF7E8FF2046FFF7D1FF0720FFF7D4FFFFF7DAFF10BD00BF014B1870704700BF87640040014B1878704700BF67640040014B1860CB
:400E0000704700BF04640040024B1B78024B1868704700BF0464004044640040014B1868704700BF44640040014B1860704700BF24640040014B1860704700BF34640040A3
:400E400008B501E0FFF7EAFFFFF7D2FF10F0400FF8D108BD08B5FFF7F3FF6FF00100FFF7E3FF0020FFF7CAFF0020FFF7BBFFFFF7BFFF6FF00200FFF7DDFF00F025F8044A83
:400E8000137843F01003137000F022F808BD00BF9764004008B5044B1B7823B9FFF7DAFF0122014B1A7008BD4182FF1F014B1870704700BF746400400230800803D000BF7E
:400EC00001380046FCD17047EFF3108072B6704780F31088704700BF81F0004102E000BF83F0004330B54FEA41044FEA430594EA050F08BF90EA020F1FBF54EA000C55EAE5
:400F0000020C7FEA645C7FEA655C00F0E2804FEA5454D4EB5555B8BF6D420CDD2C4480EA020281EA030382EA000083EA010180EA020281EA0303362D88BF30BD11F0004FB5
:400F40004FEA01314FF4801C4CEA113102D0404261EB410113F0004F4FEA03334CEA133302D0524263EB430394EA050F00F0A780A4F10104D5F1200E0DDB02FA0EFC22FA55
:400F800005F2801841F1000103FA0EF2801843FA05F359410EE0A5F120050EF1200E012A03FA0EFC28BF4CF0020C43FA05F3C01851EBE37101F0004507D54FF0000EDCF109
:400FC000000C7EEB00006EEB0101B1F5801F1BD3B1F5001F0CD349085FEA30004FEA3C0C04F101044FEA445212F5800F80F09A80BCF1004F08BF5FEA500C50F1000041EB41
:40100000045141EA050130BD5FEA4C0C404141EB010111F4801FA4F10104E9D191F0000F04BF01460020B1FA81F308BF2033A3F10B03B3F120020CDA0C3208DD02F1140C7E
:40104000C2F10C0201FA0CF021FA02F10CE002F11402D8BFC2F1200C01FA02F120FA0CFCDCBF41EA0C019040E41AA2BF01EB0451294330BD6FEA04041F3C1CDA0C340EDCB7
:4010800004F11404C4F1200220FA04F001FA02F340EA030021FA04F345EA030130BDC4F10C04C4F1200220FA02F001FA04F340EA0300294630BD21FA04F0294630BD94F0DD
:4010C000000F83F4801306BF81F480110134013D4EE77FEA645C18BF7FEA655C29D094EA050F08BF90EA020F05D054EA000C04BF1946104630BD91EA030F1EBF002100202E
:4011000030BD5FEA545C05D14000494128BF41F0004130BD14F580043CBF01F5801130BD01F0004545F0FE4141F470014FF0000030BD7FEA645C1ABF194610467FEA655C8A
:401140001CBF0B46024650EA013406BF52EA033591EA030F41F4002130BD00BF90F0000F04BF0021704730B54FF4806404F132044FF000054FF0000150E700BF90F0000F5A
:4011800004BF0021704730B54FF4806404F1320410F0004548BF40424FF000013EE700BF42004FEAE2014FEA31014FEA02701FBF12F07F4393F07F4F81F06051704792F0A9
:4011C000000F14BF93F07F4F704730B54FF4607401F0004521F0004120E700BF50EA010208BF704730B54FF000050AE050EA010208BF704730B511F0004502D5404261EB62
:4012000041014FF4806404F132045FEA915C3FF4DCAE4FF003025FEADC0C18BF03325FEADC0C18BF033202EBDC02C2F1200300FA03FC20FA02F001FA03FE40EA0E0021FA74
:4012400002F11444C1E600BF80F0004002E000BF81F0004142001FBF5FEA410392EA030F7FEA226C7FEA236C6AD04FEA1262D2EB1363C1BFD218414048404140B8BF5B426E
:40128000192B88BF704710F0004F40F4000020F07F4018BF404211F0004F41F4000121F07F4118BF494292EA030F3FD0A2F1010241FA03FC10EB0C00C3F1200301FA03F14E
:4012C00000F0004302D5494260EB4000B0F5000F13D3B0F1807F06D340084FEA310102F10102FE2A51D2B1F1004F40EBC25008BF20F0010040EA03007047490040EB000069
:4013000010F4000FA2F10102EDD1B0FA80FCACF1080CB2EB0C0200FA0CF0AABF00EBC25052421843BCBFD0401843704792F0000F81F4000106BF80F400000132013BB5E791
:401340004FEA41037FEA226C18BF7FEA236C21D092EA030F04D092F0000F08BF0846704790EA010F1CBF0020704712F07F4F04D1400028BF40F00040704712F100723CBFDB
:4013800000F50000704700F0004343F0FE4040F4000070477FEA226216BF08467FEA23630146420206BF5FEA412390EA010F40F4800070474FF0000304E000BF10F00043D9
:4013C00048BF40425FEA000C08BF704743F0964301464FF000001CE050EA010208BF70474FF000030AE000BF50EA010208BF704711F0004302D5404261EB41015FEA010C21
:4014000002BF84460146002043F0B64308BFA3F18053A3F50003BCFA8CF2083AA3EBC25310DB01FA02FC634400FA02FCC2F12002BCF1004F20FA02F243EB020008BF20F043
:401440000100704702F1200201FA02FCC2F1200250EA4C0021FA02F243EB020008BF20EADC7070474FF0FF0C1CEAD0521EBF1CEAD15392EA0C0F93EA0C0F6FD01A4480EA89
:40148000010C400218BF5FEA41211ED04FF0006343EA501043EA5111A0FB01310CF00040B1F5000F3EBF490041EAD3715B0040EA010062F17F02FD2A1DD8B3F1004F40EBA8
:4014C000C25008BF20F00100704790F0000F0CF0004C08BF49024CEA502040EA51207F3AC2BFD2F1FF0340EAC250704740F400004FF00003013A5DDC12F1190FDCBF00F08F
:4015000000407047C2F10002410021FA02F1C2F1200200FA02FC5FEA310040F1000053EA4C0308BF20EADC70704792F0000F00F0004C02BF400010F4000F013AF9D040EAC9
:401540000C0093F0000F01F0004C02BF490011F4000F013BF9D041EA0C018FE70CEAD15392EA0C0F18BF93EA0C0F0AD030F0004C18BF31F0004CD8D180EA010000F00040D1
:40158000704790F0000F17BF90F0004F084691F0000F91F0004F14D092EA0C0F01D142020FD193EA0C0F03D14B0218BF084608D180EA010000F0004040F0FE4040F400002D
:4015C000704740F0FE4040F4400070474FF0FF0C1CEAD0521EBF1CEAD15392EA0C0F93EA0C0F69D0A2EB030280EA010C49024FEA402037D04FF0805343EA111143EA101315
:401600000CF000408B4238BF5B0042F17D024FF4000C8B4224BF5B1A40EA0C00B3EB510F24BFA3EB510340EA5C00B3EB910F24BFA3EB910340EA9C00B3EBD10F24BFA3EBB2
:40164000D10340EADC001B0118BF5FEA1C1CE0D1FD2A3FF650AF8B4240EBC25008BF20F0010070470CF0004C4CEA50207F32C2BFD2F1FF0340EAC250704740F400004FF02C
:401680000003013A37E792F0000F00F0004C02BF400010F4000F013AF9D040EA0C0093F0000F01F0004C02BF490011F4000F013BF9D041EA0C0195E70CEAD15392EA0C0F5C
:4016C00008D142027FF47DAF93EA0C0F7FF470AF084676E793EA0C0F04D14B023FF44CAF08466EE730F0004C18BF31F0004CCAD130F000427FF45CAF31F000437FF43CAFE1
:401700005FE700BF014B1868704700BF3481FF1F0E4B70B51E460E4C0025E41AA410A54204D056F8253098470135F8E703F02AFA084B094C1E46E41AA4100025A54204D075
:4017400056F8253098470135F8E770BD904B0000904B0000904B0000984B000010B5431E0A44914204D011F8014B03F8014FF8E710BD03460244934202D003F8011BFAE79C
:4017800070472DE9F04788B0149F002B1E461299B8BF03F1004327F02007B6BF1E4600232D23462F1446109DDDF84CA00B7003D0452F03D1013501E0032300E0022307AA02
:4017C000049206AA03928DE828042246334600F047FD472F804602D1119BDB0728D5462F08EB050911D198F80030302B0AD1002200232046314602F0FBFE18B9C5F10105D6
:40180000CAF80050DAF800309944002200232046314602F0EDFE08B9302202E0CDF81C9006E0079B994503D9591C07911A70F8E74046079B159AC8EB0303136008B0BDE83A
:40184000F087034673B50029B8BF494203F8022BB4BF2D222B22092942701ADD0DF1070216460A2591FBF5F405FB1411092C01F1300102F8011D2146F4DC3031541E02F8A3
:40188000011CB4421A460AD214F8012B03F8012BF7E71A463024214402F8024B5970101A02B070BD2DE9F04F91B00C46DDF8688016461F46054601F06BFA036818460993FE
:4018C00000F038FC00230E93D8F800300A90073323F0070303F1080294F81890D4F800B0C8F80020D3E90023C4E91223D4F84CA0D4F848802AF000430B934FF0FF32A74B17
:4019000040460B9902F0A6FEA0B94FF0FF32A34B40460B9902F080FE60B9002200234046514602F06FFE10B12D2384F843309C4B9C4A0AE0424653464046514602F08AFE4D
:40194000002800F09281984B984AB9F1470F8CBF90469846032323612BF0040323604FF0000A3DE0B9F1670F00F08A81B9F1470F00F0868123600193636800210DF133027B
:40198000059002920093424653460691CDF81090CDF80CE02846FFF7F4FE09F0DF03472B804600F08481B9F1650F0D9900F28D8101394A4604F150000D91FFF742FF0E9AEF
:4019C00082468318012A236100F37C812268D10700F178819DF8333013B12D2384F84330009733460FAA2146284600F09FF9013002D14FF0FF3096E123685A0501D4236944
:401A000065E0B9F1650F40F2D580D4E912010022002302F0EDFD78B30123654A31462846B8470130E5D00E9B0D9A9A420BDB2368D80708D423689B0740F111814FF0000874
:401A400004F1190906E10A9B099A31462846B8470130CED04FF0000804F11A090E9B013B9845E7DA01234A4631462846B8470130BFD008F10108F1E70D9B002B29DC01235D
:401A80004B4A31462846B8470130B2D00D9B23B90E9B13B92368D907CCD50A9B099A31462846B8470130A4D04FF0000904F11A0A0D9B5B42994509DA01235246314628461C
:401AC000B847013095D009F10109F1E70E9B4246A7E00E9AA36D9A42A8BF1A46002A914606DC4FF0000A29EAE97904F11A0B11E01346314642462846B8470130F1D178E79F
:401B000001235A4631462846B84701303FF471AF0AF1010AA36DC9EB03029245F0DB08EB03090D9A0E9B9A420FDB2368DA070CD40E9B0D9A9844C9EB08089B1A9845A8BFBE
:401B40009846B8F1000F08DC0FE00A9B099A31462846B8470130EBD14BE743464A4631462846B84701303FF444AF4FF0000928EAE87804F11A0A09E0012352463146284600
:401B8000B84701303FF435AF09F101090D9A0E9B9B1AC8EB03039945EEDB4BE7FFFFEF7F9A4800009E480000A2480000A64800001E4A00000E9A012A01DCDB0738D501230C
:401BC000424631462846B84701303FF412AF0A9B099A31462846B84701303FF40AAFD4E912010022002302F003FD20B14FF0000804F11A090EE00E9B08F10102013B19E00C
:401C000001234A4631462846B84701303FF4F1AE08F101080E9B013B9845F1DB534604F1500231462846B84701307FF403AFE0E64246012331462846B8470130EED1D8E65B
:401C400001234A4631462846B84701303FF4D1AE08F10108E3680F9A9B1A9845F0DBE0680F9B9842B8BF18465DE062680EA8531C0DF1340E4BF480637FF474AE062201E0C9
:401C800012B90122626075E6002106910DF133018DE80C00236005904246CDF81090CDF80CE0029153462846FFF76BFD80460D9BD81C02DB626893421DDDA9F102095FFA2A
:401CC00089F970E60133236184E6B9F1660F14D10029636807DD216113B92268D2071DD501330B4419E013B92268D00701D5023313E0012311E04FF067090D9B0E9A9342DB
:401D000005DB22682361D10708D5013305E0002BD4BFC3F102030123134423610D9B4FF0000AA36556E611B0BDE8F08F2DE9F04791461F460A698B6806469342B8BF134677
:401D4000C9F8003091F843200C46DDF8208012B10133C9F800302368990642BFD9F800300233C9F80030256815F0060510D104F1190A07E00123524639463046C04701301F
:401D80001AD00135E368D9F800209B1A9D42F1DB94F843302268003318BF012392060FD5E118302081F843005A1C94F845102244023382F8431003E04FF0FF30BDE8F08703
:401DC00004F1430239463046C0470130F4D02268D9F80050E36802F00602042A08BF5D1B2269A3680CBF25EAE57500259342C4BF9B1AED184FF000091A344D4509D0012335
:401E0000224639463046C0470130D5D009F10109F3E70020BDE8F0872DE9F04317460A7E85B06E2A984606460C460C9B01F1430E00F0AE8011D8632A22D009D8002A00F06C
:401E4000BB80582A40F0CA8081F84520834955E0642A1ED0692A1CD0C0E0732A00F0B08009D86F2A2ED0702A40F0B8800A6842F020020A603EE0752A24D0782A3AD0ADE060
:401E80001A6801F14205111D1960136884F84230A8E021681A6811F0800F02D0111D196008E011F0400F02F10401196002D0B2F9003000E01368002B3CDA2D225B4284F861
:401EC000432037E021681A6811F0800F02D0111D196007E011F0400F02F10401196001D0138800E01368227E5C496F2A14BF0A2208221BE078225A4984F8452022681868BB
:401F000012F0800F00F104051D6003D1550601D5038800E00368D00744BF42F0200222601BB9226822F0200222601022002084F8430001E049490A226568002DA56008DB68
:401F4000206820F0040020602BB9002D7DD175460CE0002B79D07546B3FBF2F002FB1033CB5C05F8013D03460028F5D1082A0BD12368DA0708D5236962689A42DEBF30232E
:401F800005F8013C05F1FF35C5EB0E0323612EE008681A6810F0800F496903D0101D1860136808E010F0400F02F104001860136801D0198000E0196000232361754616E008
:401FC0001A68111D1960156800216268284600F0EBFE08B1401B6060636804E004F1420584F8422001232361002384F84330CDF800803B4603AA21463046FFF797FE0130A6
:4020000002D14FF0FF3026E023692A4639463046C0470130F5D023689B0710D5002504F1190907E001234A4639463046C0470130E7D00135E368039A9B1A9D42F2DBE068D7
:40204000039B9842B8BF184605E00B7804F1420584F842308AE705B0BDE8F083AA480000BB4800000EB400B54FF402719CB0ADF814106FF00041049107914FF6FF711DABC2
:4020800002900690084853F8042BADF81610006802A9019301F07EFA029B00221A701CB05DF804EB03B070473481FF1F0EB430B59CB01FAC4FF4017254F8045BADF81420C5
:4020C0000290069000F036F80B4B03900B9300230F9314934FF6FF7307900848ADF816302A46234602A90068019401F0A3FB1CB0BDE8304003B07047012100003481FF1FCE
:4021000000207047C9B2034610F8012B1AB19142F9D11846704700290CBF18460020704710F8012B11F8013B012A28BF9A42F7D0D01A7047034613F8012B002AFBD1181AB3
:40214000013870472DE9F74F03690C6980469C427FDC013C01F114074FEA840E00F1140606EB0E0357F82450019356F824300135B3FBF5F507EB0E09C5B34FF0000A384602
:40218000B446D34650F8043B9AB205FB02A21B0C4FEA124A05FB03A392B2C2EB0B0BBCF800204FEA134A5A441FFA83FBDCF800308145CBEB134303EB224392B242EA0342AF
:4021C0004FEA234B4CF8042BDCD256F80E306BB9019B043B9E421A4602D3C8F8104005E01268043B002AF8D1013CF3E7404600F0F6FF00282BDB304601354FF0000E57F8DE
:40220000042B036891B2C1EB0E0E120C99B27144C2EB134303EB214389B24FEA234EB94541EA034340F8043BE9D256F8242006EB840362B9043B9E421A4602D3C8F8104077
:4022400005E01268043B002AF8D1013CF3E7284600E0002003B0BDE8F08F0000000000002DE9F04F456A95B08246219CCDE9022345B9102000F090FDCAF8240045608560AD
:402280000560C560DAF82430196859B15A68012393404A608B60504600F0C9FDDAF8243000221A60039BA04A002BBDBF01232360039B0023BCBF23F000430393DDF80C8028
:4022C000A8BF236028F000431B0D1B0593421DD142F20F73209A1360029B43B9934A944BC8F31300002814BF1846104600E09048229B002B00F04685C37813B100F1080383
:4023000000E0C31C229A136000F03CBDDDE90245002200232046294602F06AF9074658B1209A01231360229B002B00F01E8581481860013800F026BD12AB019313AB009339
:4023400022462B46504600F0C5FFC8F30A56049056B1C5F3130343F07F51204641F44011A6F2FF3611971DE0139B129E1E4406F23243202B0ADD029A06F21240C3F1400319
:4023800022FA00F008FA03F3184304E0C3F12000029B03FA00F0FEF7E1FE0123A1F1F871013E11930022644BFEF79AFD58A3D3E9002301F0B5FE58A3D3E90023FEF792FD6D
:4023C000044630460D46FEF7D9FE55A3D3E9002301F0A6FE02460B4620462946FEF782FD04460D4602F04CF90022834600232046294602F007F958B15846FEF7BFFE024666
:402400000B462046294602F0F3F808B90BF1FF3BBBF1160F0DD8DDE90223484901EBCB01D1E9000102F00CF930B10BF1FF3B002300E00123109300E01090129B9E1B731EAE
:40244000079343BFC3F10008002307934FF00008BBF1000F06DB079BCDF82CB05B440793002705E00023CBEB0808CBF100070B931E9B092B28D8052BC4BF043B1E931E9B49
:40248000C8BF0025A3F10203D8BF0125032B20D8DFE803F0060E0204012302E0012308E000230A931F9B002B1DDD9946059321E000230A931F9B0BEB030909F10103012B51
:4024C0000593B8BF012315E0012500231E930A9501E001230A934FF0FF390022CDF8149012231F9206E04FF001094B46CDF81490CDF87C90DAF8244000226260042101F166
:4025000014029A421CD86268490001326260F6E761436F63A787D23FB3C8608B288AC63FFB799F501344D33F0000F07FCC480000D54800001F4A00000000F83FE8480000C2
:402540006168504600F03EFCDAF8243020601B680693059B0E2B00F25B81002D00F05881DDE90234BBF1000FCDE90E3430DD9F4A0BF00F034FEA2B1502EBC303E80618CBC4
:40258000CDE908340CD5DDE90E01994B05F00F05D3E9082301F0EEFE0324CDE9020100E00224934E6DB1E90708D5DDE90801D6E9002301F0B5FDCDE9080101346D1008360D
:4025C000F0E7DDE90823DDE9020101F0D3FE20E0CBF1000505B3DDE90E01844B05F00F0203EBC203D3E9002301F09AFDCDE902017F4E2D110023022455B1EA0705D5D6E9AE
:40260000002301F08DFD013401236D100836F3E71BB1CDE9020100E00224109BE3B1DDE902560022734B2846314601F0EBFF98B1059B8BB1B9F1000F40F3E6800BF1FF33E1
:402640000893314600226C4B284601F069FD0134CDE902014E4602E0059ECDF820B02046FEF78CFDDDE9022301F05AFD634B0022FEF738FCA1F1507304460C931D46D6B9CE
:40268000DDE9020100225E4BFEF72AFC22460C9BCDE9020101F0D4FF002840F03F820C99224601F10043DDE9020101F0ABFF002840F02B82A8E00A9A4C4B711E002A49D086
:4026C00003EBC103D3E9002300204E4901F052FE22462B46FEF704FCCDE90C01069CDDE9020101F0CDFF0546FEF748FD02460B46DDE90201FEF7F4FBDDE90C23303504F877
:40270000015BCDE9020101F07DFF002840F01D83DDE9022300203749FEF7E2FBDDE90C2301F070FF002840F0D180069BE31AB3426ADADDE90C0100222F4B01F0F1FC00227E
:40274000CDE90C01DDE902012B4B01F0E9FCCDE90201C4E703EBC1012246D1E900012B4601F0DEFC069BCDE90C011D469C19DDE9020101F085FF0646FEF700FD02460B467D
:40278000DDE90201FEF7ACFB303605F8016BAC42CDE902014FF0000222D11A4BDDE90C01FEF7A0FB02460B46DDE9020101F048FF002840F08B80DDE90C2300201149FEF7E1
:4027C0008FFB02460B46DDE9020101F01BFFD8B114F8013C621E302B40F0B7821446F7E7054B01F09DFCCDE90201C0E7E8480000C04900000000F03F0000244000001C4032
:40280000000014400000E03FDDE90E34CDE90234139B002B7CDBBBF10E0F79DCAB4B03EBCB03D3E900671F9B002B14DA059B002B11DC40F06C810022A54B3046394601F06E
:402840006FFCDDE9022301F0F1FE059D2E46002840F05F8165E1069CDDE9028932463B464046494601F086FD01F00AFF0546FEF785FC32463B4601F053FC0B4602464946FD
:402880004046FEF72DFB05F1300E069B04F801EBC3EB040E059B73452DD102460B46FEF721FB8046894602460B463046394601F0A9FE78B942464B463046394601F098FE77
:4028C000002800F04482EB0704D440E2DDF820B000E01C4614F8012C631E392A07D1069A9A42F6D1069930220BF1010B0A701A7801321A702BE20022764B01F011FC00221D
:4029000000238046894601F073FE0028A6D01EE20A9A002A2BD01E9A012A0ADC119A12B103F2334302E0129BC3F136033D46444613E0059B5D1EAF42BFBF0B9BEA1B9B1810
:402940000B93059BB6BF2F467D1B0025002BA7BF4446059BC3EB08040023079A01211A4450469844079200F001FB064602E03D4644460A9E5CB1079B002B08DDA342A8BFD4
:402980002346079AC3EB0808E41AD31A0793002F1DDD0A9BABB18DB131462A46504600F07FFB049A01460646504600F0E8FA04990890504600F03BFA089B04937A1B06D04D
:4029C00000E03A460499504600F06AFB04900121504600F0CBFA0B9B05465BB31A460146504600F05DFB1E9B0546012B18DC029B83B9039BC3F3130373B9039B23F00047DF
:402A00003F0D3F054FB1079B08F1010801330793012702E0002700E0029F0B9B73B100E000272B6905EB8303186900F052FAC0F1200004E01E9B012BD9DD0B9F0120079B8D
:402A4000184410F01F0008D0C0F12003042B02DDC0F11C0002E006D018461C30079B8044034404440793B8F1000F05DD42460499504600F063FB0490079B002B05DD29460E
:402A80001A46504600F05AFB0546109B23B32946049800F0A4FB00281EDA00230A220499504600F0DBF90A9B0BF1FF3B0490002B00F05F81314600230A22504600F0CEF992
:402AC000B9F1000F06463FDC3BE000BFE84800000000144000002440059B002B2BDC1E9B022B28DDDDF81490B9F1000F11D129464B460522504600F0B1F90146054604989E
:402B000000F06DFB00280CDC03E0354600E000252E461F9B069C6FEA030B09E03546DDF820B0069B069A5C1C312313700BF1010B05960026F7E00A9BDDF8149023B9069CBE
:402B4000B2E01E9B022BCFDC002C05DD31462246504600F0F3FA06469FB17168504600F031F90446326906F10C01023292000C30FEF7F4FD01222146504600F0DFFA05905E
:402B800000E00596029B069F03F00103079329460498FFF7D7FA3146044600F13008049800F01DFB059A02902946504600F033FBC36802463BB901460A90049800F00FFB35
:402BC0000A9A034600E00123114650460A9300F02EF90A9B53B91E9A42B9079A32B9B8F1390F2AD0029B002B1CDC1DE0029A002A04DB1BD11E9ACAB9079ABAB9002B13DDB0
:402C000001220499504600F099FA2946049000F0E6FA002803DC07D118F0010F04D0B8F1390F0AD004F131087C1C0CE0002B07F101040BDDB8F1390F03D139233B7001378C
:402C400056E008F1010887F800806CE0069B2746E31A4B4504F8018C3BD000230A220499504600F0FBF8059B04909E424FF00A024FF000033146504604D100F0EFF8064697
:402C8000059084E700F0EAF8002306460A220599504600F0E3F8059079E700230A220499504600F0DBF8049029460498FFF74AFA069B00F1300804F8018BE31A4B45ECDBEF
:402CC000069B0596B9F1010FACBF4B4401331F46002601220499504600F030FA2946049000F07DFA002803DC15D118F0010F12D03C4614F8013C621E392B09D1069B934265
:402D000004D10BF1010B3123069A02E01446F0E70133137007E03C4614F8013C621E302B01D11446F8E72946504600F080F8059B6BB12EB19E4203D03146504600F077F839
:402D40000599504600F073F801E0DDF820B00499504600F06CF80023209A23700BF101031360229B1BB11C6001E008480AE0069808E0B9F1000F3FF7E2AE1E9B022B7FF753
:402D8000DEAEB1E615B0BDE8F08F00BF1E4A0000004870473881FF1F024B0146186800F041BB00BF3481FF1F10B5C9B202449042034605D01C7801308C42F8D1184610BD7B
:402DC000002010BD70B5456A04460E463DB91020FFF7E2FF6062456085600560C560656AEB6843B1636ADB6853F8260078B1026843F8262017E021220421204600F0B8FA8F
:402E0000636AE860DB68002BECD1002070BD012101FA06F56A1D9200204600F0A9FA0028F3D04660856000230361C36070BD70B5446A06460D463CB91020FFF7ADFF706283
:402E4000446084600460C4603DB1736A6A68DB6853F82210296043F8225070BD2DE9F04106460C460D691F4601F1140E0023DEF80000013381B202FB0171000C0F0C02FBBB
:402E8000007089B201EB00419D424FEA10474EF8041BECDCD7B1A3689D4212DB616830460131FFF78FFF8046226904F10C01023292000C30FEF752FC21463046FFF7B7FF29
:402EC000444604EB850301355F6125612046BDE8F081030C1B0413B90004102300E0002310F07F4F04BF0002083310F0704F04BF0001043310F0404F04BF800002330028EE
:402F000003DB420003D5581C70471846704720207047036813F007020BD0D90722D49A074BBF5B089B08036003604CBF01200220704799B209B91B0C102213F0FF0F04BF84
:402F40001B0A0832190704BF1B090432990704BF9B080232D90702D45B0805D00132036010467047002070472020704710B50C460121FFF727FF01224461026110BD2DE9B9
:402F8000F74F14460A69236988469A42BEBF0B46A0461C46D8F81070D4F81090D8F80830D8F8041007EB09069E42C8BF0131FFF709FF00F114052B4605EB860C00226345AB
:402FC00002D243F8042BFAE704F1140208F1140102EB890301EB87070093009B0192934257D9B2F800B0BBF1000F23D08946AE464FF0000859F8044BBEF800A0A3B20BFB7D
:4030000003A34FEA144ADEF8004043444FEA14480BFB0A84F24604EB13449BB243EA04434F454FEA14484AF8043B01D9D646E1E7CEF80480019B0432B3F802A0BAF1000FC3
:4030400021D02C4689462B684FF00008B9F800E0B4F802B09BB20AFB0EBEA346F04443EA08434BF8043B59F8043BB4F804E01B0C0AFB03E34F4503EB18434FEA134801D9A3
:403080005C46E3E763600435A7E75CF8043D13B9013E002EF9DC066103B0BDE8F08F00002DE9F843154612F0030206460F4607D0214C013A002354F82220FFF7CFFE0746A5
:4030C000AD1036D0746A3CB91020FFF765FE7062446084600460C460D6F82480D8F808404CB940F271213046FFF740FF04460023C8F8080003604FF00008EB070AD53946A2
:4031000022463046FFF73BFF814639463046FFF78EFE4F466D100CD0206808B10446ECE7224621463046FFF72AFF2060C0F80080F4E73846BDE8F883B04900002DE9F0471C
:403140000C460746914626694FEA621A56444968A368751CAB4202DA01315B00FAE73846FFF730FE002380461A4600F11401534503DA41F823200133F9E72AEAEA73206987
:4031800001EB830319F01F0904F1140101EB800E14D0C9F1200C002208689A4600FA09F0024343F8042B51F8042B8E4522FA0CF2F2D8CAF8042042B1B51C06E0043B51F8C3
:4031C000042B8E4543F8042FF9D8013D3846C8F810502146FFF72BFE4046BDE8F08703690A6910B59B1A11D192001430143183180A4453F8044D52F8041D8C4202D007D3CA
:40320000012010BD9842F4D3002010BD184610BD4FF0FF3010BD2DE9F8430C460746114620461546FFF7DBFF061E08D131463846FFF7C8FD012303614661BDE8F883BCBF5D
:4032400023462C4638466168BABF1D4601260026FFF7B8FD2B69C660266905F1140904F1140101EB860709EB830800F114054FF0000C51F8042B59F8044B93B29C44A3B213
:40328000240CC3EB0C03C4EB124202EB23429BB24FEA224CC84543EA02428E4645F8042BE7D8BE450ED25EF8041B8AB26244131403EB114392B242EA03424FEA234C45F81E
:4032C000042BEEE755F8043D0BB9013EFAE70661BDE8F8832DE9F3411C4601219046089E099DFFF76FFDC4F31302C4F30A5407460CB142F480120192B8F1000F19D002A8EE
:4033000040F8088DFFF705FE009B48B1019AC0F1200102FA01F10B43C2407B61019200E07B61019B002B14BF02210121BB61396107E001A8FFF7EDFD019B01217B61396124
:40334000203034B1A4F2334404443460C0F1350009E0A0F2324007EB810330601869FFF7B8FDC0EB41102860384602B0BDE8F08138B502FB01F4214600F054F8054618B1CA
:4033800022460021FEF7F5F9284638BD38B50546002944D051F8043C0C1F002BB8BFE41800F08CFE1E4A1368114613B96360146030E0A3420DD92268A018834201BF18689E
:4033C0005B681218226063600C6023E0A24203D813465A68002AF9D118681918A1420BD12168014458188242196013D110685268014419605A600DE002D90C232B6009E07A
:4034000021686018824201BF106852680918216062605C602846BDE8384000F050BE38BD4882FF1F70B5CD1C25F0030508350C2D38BF0C25002D064601DBA94202D90C233C
:40344000336046E000F03AFE234B1C681A462146A1B10B685B1B0ED40B2B03D90B60CC18CD501EE08C420BBF63684B681360636018BF0C4615E00C464968E9E7174C2368EE
:403480001BB9304600F082FC20602946304600F07DFC431C18D0C41C24F00304A0420DD12560304600F00BFE04F10B00231D20F00700C31A0ED05A42E25070BD211A3046D2
:4034C00000F064FC0130EBD10C233360304600F0F6FD002070BD00BF4882FF1F4482FF1F2DE9F0478E6882469E420C46914698463ED88A8912F4906F3AD02568096902234E
:403500006F1A656905EB450595FBF3F57B1C43449D4238BF1D4653050FD52946FFF782FF064698B13A462169FEF718F9A38923F4906343F08003A38113E02A4600F0C0FD44
:40354000064670B921695046FFF720FF0C23CAF80030A3894FF0FF3043F04003A381BDE8F08726613E44266046466561ED1BA560464528BF464649463246206800F083FD45
:40358000A36800209B1BA36023681E442660BDE8F08700002DE9F04F9DB003938B8980461C060D4616460DD50B695BB94021FFF739FF2860286118B90C23C8F80030CDE00E
:4035C00040236B610023099320238DF82930DFF89CB130238DF82A3037463C4614F8013B1BB9B7EB060910D003E0252BF9D02746F3E74B46324629464046FFF771FF0130E2
:4036000000F0A780099B4B4409933B78002B00F0A08000234FF0FF3204930793059206938DF853301A930126052221784E48FFF7BBFB671C049B38B14B4A3C46801A06FA28
:4036400000F018430490EFE7D90644BF20228DF853201A0744BF2B228DF8532022782A2A03D0079A00210A200BE0039A111D12680391002A10DA524243F002000792049095
:403680000BE027463B780134303B092B03D800FB02320121F5E701B107923B782E2B1ED17B782A2B0AD1039B02371A1D1B680392002BB8BF4FF0FF33059310E00023194677
:4036C0000593781C0A2407463A780130303A092A03D804FB01210123F5E703B10591032239782248FFF760FB40B14023CBEB000003FA00F0049B0137184304903978062236
:403700001B487E1C8DF82810FFF74EFB88B1194B33B9039B073323F007030833039314E003AB00932A46144B04A94046FEF7BAF807E003AB00932A460F4B04A94046FEF749
:403740006BFBB0F1FF3F824603D0099B5344099342E7AB895B0601D4099801E04FF0FF301DB0BDE8F08F00BFE8490000EE490000F2490000A5180000E13400004B1C70B55E
:403780000E46144602D14FF0FF3070BD9389CDB223F020039381536B526883B1A36B9A4207DA23685A1E226003F8016C636801331FE0214600F02EFC0028F2D0E3E72169E7
:4037C000236851B1994208D213F8011C8D4204D1013B0132236062600CE0E36304F1440363630323A3632346226403F8466F236001236360284670BD10B50C46496B69B11E
:4038000004F14403994201D0FFF7C0FD236C00206063636013B1E36B236010BD23694FF0FF30236000236360A38943F02003A38110BD00002DE9F04FDFF89C9207460D4686
:40384000CA46ADF5257D01930023469347939E4B0DF10C08A2939D4BDFF874B2CDF82081A3931478002C00F02781D9F8003023445B7803F0080303F0FF01F3B16B68002BBB
:4038800010DD2B68DAF800001978014449780C0710D5479901330131479169682B6001396960EBE7A39B2946384600929847009A0028E6D0561C3246D3E7252C02F10106D5
:4038C00052D14391459153782A2B02BF1023961C43930A2231783446A1F13003092B06F1010605D8459B02FB0313303B4593F1E703227748FFF758FA40B134460123CBEBBD
:40390000000003FA00F0439B03434393661C2478672C16D8652C7FD2472C07D8452C7BD2002C00F0CB80252C1ED077E05B2C51D002D8582C3ED071E0632C57D0642C3FD058
:403940006CE0702C32D007D86E2C55D03AD8692C64D1002344933BE0752C31D0782C29D0732C5BD102233FE06B68002B0DDD2B681A78944240F0A08001336A682B60479BDA
:40398000013A01336A60479395E7A39B2946384698470028EBD04698002800F08F80AB8913F0400F18BF4FF0FF3089E0439B43F020034393439B43F400734393102302E0D5
:4039C0000A2300E008236E2C449301DD04230BE0032309E03146404600F0E8F90646439B43F040034393012349931BE0439B43F0400343930023F7E7439AD0063FF55BAFC4
:403A000012F0010F019A479B02F104010191126814BF138013604EE70523E5E7032349930A2344936B68002B03DD439B590611D518E0A39B2946384698470028F5D0AAE76A
:403A4000479A013247926A68013A002A6A6013DD01332B602B68DAF800101A780A4452781207EDD4499B022B0DDC01AB2A4643A9384600F033F819E0A39B29463846984712
:403A80000028E7D087E7042B06DC01AB2A4643A9384600F089F809E00E4B002B3FF40BAF01AB2A4643A93846AFF30080012803D002287FF400AF6EE7469801E04FF0FF30E5
:403AC0000DF5257DBDE8F08F7D370000F9370000EE490000000000007081FF1F2DE9F84315468A6880460C4632B98A69002A0CBF01224FF0FF328A602268DFF8A890D1065E
:403B000058BF1A684FF000065EBF111D19601768A069F8B923680136DA065EBF2B681B783B702A686B6802F101022A60A26803F1FF3302F1FF326B6058BF0137A260E2B132
:403B4000002BE5DCD4F880312946404698470028DED012E0012806D12B681A7863699B5C002BD7D119E0022807D12B68D9F800201B7813445B781B07CCD5236813F01003E5
:403B800005D1E2680132E260A26902B13B70236900201E442661BDE8F883002EEDD1BDE8F88300BF7081FF1F2DE9F04F0C469A46724B87B08346164693E8070003ABA76899
:403BC00083E807006E4BA1696E4A04F11C09032918BF1A467B1EB3F5AE7F84BF40F25D13A360236888BF6FF4AE7543F4506323604B4600928CBF7F1900274FF00008316833
:403C0000019303AB53F8280002220978FFF7CCF8019B002833D0B8F1010F0BD162682AB908226260226842F400722260226822F4A0620CE0B8F1020F0AD1226802F4C06103
:403C4000B1F5007F1BD11021616042F480722260A268511EA16092B132685D1C511C316012781A707368013B002B736006DCD4F88031314658469847002841D12B4608F1A9
:403C80000108B8F1030FBAD162680AB90A22626062683D496069891A019300F087F8019B4FF000081D46A36863B3316860690A78805C38B3302A226808D1100506D508F1C3
:403CC000010857B10133013FA36006E022F4106222600B78013505F8013C7368013B002B736003DD33680133336005E0D4F8803131465846984728B9A368013BA360D2E7C8
:403D00004FF000082368D9050CD54D4508D915F8011C6F1ED4F87C313246584698473D464D4527D0226812F010021BD12A70636849465846009EB0472268DAF8003012F00F
:403D4000200F07D1D20705D51A1DCAF800201B68188004E01A1DCAF800201B681860E3680133E3602369C9EB050545441D442561002000E0012007B0BDE8F08FFC490000A0
:403D8000193F00000D3E0000184A000038B5064C0023054608462360FCF75AFD431C02D1236803B12B6038BD4C82FF1F70B50B78441E5E2B13BF4A1C8A1C4B78002108BF3D
:403DC000012100F1FF0504F8011FAC42FBD10BB9501E70BD81F001041146C4540D784A1C2D2D06D05D2D0FD00DB12B46F4E7084670BD4E785D2EF8D0B342F6DC0231013342
:403E00009E42C454FBDCE9E7104670BD2DE9F0470F4680463F48D0F800903D4615F8014B09EB0400407800F0080000F0FF0608B12F46F2E72D2C03D1BD1C7C78012603E095
:403E40002B2C04BF7C78BD1C13B1102B0AD15BE0302C57D1287800F0DF0058284DD16C7810230235002E14BF4FF0004C6FF0004CBCFBF3FA0027384603FB1ACC09EB040EFD
:403E80009EF801E01EF0040F01D0303C0BE01EF0030E1BD0BEF1010F0CBF4FF0370E4FF0570ECEEB0404A34210DDB7F1FF3F0AD0504506D801D1644503DC03FB0040012700
:403EC00001E04FF0FF3715F8014BD7E77B1C0CD1002E4FF0220314BF4FF000406FF00040C8F800302AB9BDE8F08706B1404272B107B1691E1160BDE8F0873024002BB1D146
:403F00000823AFE70A23ADE7302CA3D0AAE7BDE8F08700BF7081FF1F2DE9F0470E4680463B48D0F80090354615F8014B09EB0400407800F0080000F0FF0708B12E46F2E7FB
:403F40002D2C03D1B51C7478012703E02B2C04BF7478B51C13B1102B0AD153E0302C4FD1287800F0DF00582845D16C78102302354FF0FF3CBCFBF3FC03FB0CFA00266FEAF6
:403F80000A0A304609EB040E9EF801E01EF0040F01D0303C0BE01EF0030E1AD0BEF1010F0CBF4FF0370E4FF0570ECEEB0404A3420FDD002E08DB604506D801D1544503DC86
:403FC00003FB0040012601E04FF0FF3615F8014BD8E7002E07DA2223C8F800304FF0FF302AB9BDE8F08707B1404272B106B1691E1160BDE8F0873024002BB9D10823B7E744
:404000000A23B5E7302CABD0B2E7BDE8F08700BF7081FF1F2DE9F0410C46496B04F1440399421AD14FF48061FFF7FCF918B94FF0FF30BDE8F0814FF48063A36394F846307C
:40404000606380F8FF3394F8453000F2FD30437094F844300370206012E0A66B77003A4600F02EF805460028E1D000EB0608014632464046FDF772FBC4F800806563A7632C
:404080000020BDE8F081884210B501EB020301D8421E0BE09842FBD28118D21AD34204D013F8014D01F8014DF8E710BD994204D011F8014B02F8014FF8E710BD704770475D
:4040C000F8B5074615460E4621B91146BDE8F840FFF7A8B91AB9FFF759F92846F8BD00F015F885420ED929463846FFF79BF9044650B131462A46FDF731FB31463846FFF715
:4041000045F901E03046F8BD2046F8BD51F8040C0028BEBF091851F8043CC0180438704770B54FF0FF0C4CF4E06C1CEA11541DBF1CEA135594EA0C0F95EA0C0F00F0DEF8FE
:404140002C4481EA030621EA4C5123EA4C5350EA013518BF52EA033541F4801143F4801338D0A0FB02CE4FF00005E1FB02E506F00042E0FB03E54FF00006E1FB03569CF041
:40418000000F18BF4EF0010EA4F1FF04B6F5007F64F5407404D25FEA4E0E6D4146EB060642EAC62141EA55514FEAC52040EA5E504FEACE2EB4F1FD0C88BFBCF5E06F1ED89D
:4041C000BEF1004F08BF5FEA500E50F1000041EB045170BD06F0004646EA010140EA020081EA0301B4EB5C04C2BFD4EB0C0541EA045170BD41F480114FF0000E013C00F31B
:40420000AB8014F1360FDEBF002001F0004170BDC4F10004203C35DA0C341BDC04F11404C4F1200500FA05F320FA04F001FA05F240EA020001F0004221F0004110EBD370CA
:4042400021FA04F642EB06015EEA430E08BF20EAD37070BDC4F10C04C4F1200500FA04F320FA05F001FA04F240EA020001F0004110EBD37041F100015EEA430E08BF20EA52
:40428000D37070BDC4F1200500FA05F24EEA020E20FA04F301FA05F243EA020321FA04F001F0004121FA04F220EA020000EBD3705EEA430E08BF20EAD37070BD94F0000F4D
:4042C0000FD101F00046400041EB010111F4801F08BF013CF7D041EA060195F0000F18BF704703F00046520043EB030313F4801F08BF013DF7D043EA0603704794EA0C0FBF
:404300000CEA135518BF95EA0C0F0CD050EA410618BF52EA4306D1D181EA030101F000414FF0000070BD50EA410606BF1046194652EA430619D094EA0C0F02D150EA013600
:4043400013D195EA0C0F05D152EA03361CBF104619460AD181EA030101F0004141F0FE4141F470014FF0000070BD41F0FE4141F4780170BD70B54FF0FF0C4CF4E06C1CEA9A
:4043800011541DBF1CEA135594EA0C0F95EA0C0F00F0A7F8A4EB050481EA030E52EA03354FEA013100F088804FEA03334FF0805545EA131343EA12634FEA022245EA111575
:4043C00045EA10654FEA00260EF000419D4208BF964244F1FD0404F5407402D25B084FEA3202B61A65EB03055B084FEA32024FF480104FF4002CB6EB020E75EB030E22BF39
:40440000B61A754640EA0C005B084FEA3202B6EB020E75EB030E22BFB61A754640EA5C005B084FEA3202B6EB020E75EB030E22BFB61A754640EA9C005B084FEA3202B6EB42
:40444000020E75EB030E22BFB61A754640EADC0055EA060E18D04FEA051545EA16754FEA06164FEAC30343EA52734FEAC2025FEA1C1CC0D111F4801F0BD141EA00014FF0C1
:4044800000004FF0004CB6E711F4801F04BF01430020B4F1FD0C88BFBCF5E06F3FF6AFAEB5EB030C04BFB6EB020C5FEA500C50F1000041EB045170BD0EF0004E4EEA113107
:4044C00014EB5C04C2BFD4EB0C0541EA045170BD41F480114FF0000E013C90E645EA060E8DE60CEA135594EA0C0F08BF95EA0C0F3FF43BAF94EA0C0F0AD150EA01347FF418
:4045000034AF95EA0C0F7FF425AF104619462CE795EA0C0F06D152EA03353FF4FDAE1046194622E750EA410618BF52EA43067FF4C5AE50EA41047FF40DAF52EA43057FF406
:40454000EBAE12E74FF0FF3C06E000BF4FF0010C02E000BF4FF0010C4DF804CD4FEA410C7FEA6C5C4FEA430C18BF7FEA6C5C1BD001B050EA410C0CBF52EA430C91EA030FEE
:4045800002BF90EA020F0020704710F1000F91EA030F58BF994208BF90422CBFD8176FEAE37040F0010070474FEA410C7FEA6C5C02D150EA013C07D14FEA430C7FEA6C5CB0
:4045C000D6D152EA033CD3D05DF8040B704700BF8446104662468C461946634600E000BF01B5FFF7B7FF002848BF10F1000F01BD4DF808EDFFF7F4FF0CBF012000205DF8F8
:4046000008FB00BF4DF808EDFFF7EAFF34BF012000205DF808FB00BF4DF808EDFFF7E0FF94BF012000205DF808FB00BF4DF808EDFFF7CEFF94BF012000205DF808FB00BFF2
:404640004DF808EDFFF7C4FF34BF012000205DF808FB00BF4FEA410C7FEA6C5C02D150EA013C0AD14FEA430C7FEA6C5C02D152EA033C02D14FF0000070474FF00100704759
:404680004FEA410212F5001215D211D56FF47873B3EB625212D94FEAC12343F0004343EA505311F0004F23FA02F018BF404270474FF00000704750EA013005D111F00040C3
:4046C00008BF6FF0004070474FF00000704700BF0000000000000000E4470000610100000100000000000000EC470000510400000100000001000000FC4700003901000053
:404700000100000000000000144800000901000001000000000000002C480000E100000001000000000000003C4800005D03000001000000010000004F4B0D0A0000000024
:404740004552524F523A2025640D0A0025640D0A0000000025660D0A0000000025750D0A0000000050534F4320354C5020547269676765723B2046573A312E312E303B202D
:40478000444154453A323032362D30372D32320D0A00000025642025752025660D0A00004F4646003000000054494D450000000031000000320000004652455155454E43A0
:4047C0005900000033000000414C4C003400000025750000547269676765722072656164790D0A002A49444E000000005349473A545249473A444956000000005349473AD4
:40480000545249473A4556454E54533A434F554E540000005349473A545249473A4556454E54533A46524551000000004C415345523A5357453A54494D4500005359533A64
:40484000545249473A4E4F5400000000004F00400C00405100403000F05100401000000001400010001401400006801A0140800100400140000A004C0140000200500140F7
:404880002000000060520040D40600480600001A0140DC06004880004300494E4600696E66004E414E006E616E0030313233343536373839414243444546003031323334A6
:4048C000353637383961626364656600496E66696E697479004E614E00504F534958002E0000000000000000000000000000F03F000000000000244000000000000059401C
:404900000000000000408F40000000000088C34000000000006AF8400000000080842E4100000000D01263410000000084D797410000000065CDCD41000000205FA002426C
:40494000000000E876483742000000A2941A6D42000040E59C30A2420000901EC4BCD64200003426F56B0C430080E03779C3414300A0D8855734764300C84E676DC1AB43C4
:40498000003D9160E458E143408CB5781DAF154450EFE2D6E41A4B4492D54D06CFF08044F64AE1C7022DB544B49DD9794378EA4405000000190000007D0000000000000053
:4049C0000080E03779C34143176E05B5B5B89346F5F93FE9034F384D321D30F94877825A3CBF737FDD4F1575232D302B2000686C4C00656667454647000000001A4A0000E5
:404A00001D4A0000204A0000412D46612D66383930313233343536375D002B2D00303000785800002020202020202020202828282828202020202020202020202020202063
:404A400020202020881010101010101010101010101010100404040404040404040410101010101010414141414141010101010101010101010101010101010101010110FC
:404A80001010101010424242424242020202020202020202020202020202020202020210101010200000000000000000000000000000000000000000000000000000000092
:404AC00000000000000000000000000000000000000000000000000000000000000000000000000000000000000000000000000000000000000000000000000000000000B6
:404B00000000000000000000000000000000000000000000000000000000000000000000000000000000000000000000000000000000000000000000000000000000000075
:404B40000000000000000000000000000000000000000000000000000000000000000000000000000000000000000000000000000000000000000000000000000000000035
:404B800000000000F8B500BFF8BC08BC9E4670474D000000CD080000F8B500BFF8BC08BC9E46704729000000B84B0000C880FF1FB0000000D80000000000000002000000B9
:404BC0005082FF1F00000000244B0000444B0000644B0000000000000000000000000000000000009848000000000000000000000000000000000000000000000000000038
:404C0000000000000000000000000000000000000000000000000000000000000000000000000000D480FF1FDF480000ED490000ED490000ED490000ED490000ED490000CD
:404C4000ED490000ED490000ED490000ED490000FFFFFFFFFFFFFFFFFFFFFFFFFFFF0000234A000000000000000000000000000000000000000000000000000000000000FD
:404C800000000000000000000000000000000000000000000000000000000000000000000000000000000000000000000000000000000000000000000000000000000000F4
:404CC00000000000000000000000000000000000000000000000000000000000000000000000000000000000000000000000000000000000000000000000000000000000B4
:404D00000000000000000000000000000000000000000000000000000000000000000000000000000000000000000000000000000000000000000000000000000000000073
:404D40000000000000000000000000000000000000000000000000000000000000000000000000000000000000000000000000000000000000000000000000000000000033
:020000040003F7
:0200000480007A
:40000000024F0040015A004003640040036500404B0201402B03014041040140230501403F060140230701404108014024090140010B0140040C0140040D014042140140E9
:400040001D150140021701404A180140401901400C1A01403B1B014004400140074101400F420140044301400345014003460140024701400248014001490140044C01400C
:40008000094D0140075001400151014001800A87D704836787678972850D890F8B384065410149FF4AFF4BFF4DA04F0150185A045F016040628064406540668068406A5099
:4000C0006BA86C406D206E506FA887038C018D0C9102940499049C049D0C9E02A401AE0CB002B101B208B302B404B508B601B704B880BE50BF44C065C103C540C6C5C72EAE
:40010000C83FC9FFCAFFCBFFCDAFCE07CF01D018D407D804D904DA04DB04DF05E040E280E440E540E680E840EA50EBA8EC40ED20EE50EFA800400A100B011020118018406C
:4001400019601A101B4122653080322138803B044304478048A049604B044D204F8050405108521053025A885B10610862107B0183018F84C001C205C405CC0DCE0AD01216
:40018000D23CD60ED806DE08E20101010C0311021304160517021B041C03260A2C052E0A300C3301360337063E403F444015410349FF4AFF4BFF4DA04F01501858045904A7
:4001C0005A045B045F016040628064406540668068406A506BA86C406D206E506FA8C054C103C9FFCAFFCBFFCDAFCE07CF01D018DA04DF01E040E280E440E540E680E8405B
:40020000EA50EBA8EC40ED20EE50EFA8004009080B011002122018411B40228023103002310832203B0140014304464047044B804F8068028548871093019B04A220A54025
:40024000AB12C001C205C405CC07CE01D0CAD218E2024054410349FF4AFF4BFF4DAF4E074F0150185A045F016040628064406540668068406A506BA86C406D206E506FA8B8
:40028000800184028F01A202A601B202B501B601BE44C015C103C524C6C0C70EC81FC9FFCAFFCBFFCDAFCE07CF01D018D407D804D904DA04DB04DF01E040E280E440E54015
:4002C000E680E840EA50EBA8EC40ED20EE50EFA8000A10201240194420083B80400143044640470448204B814F8051085250534059445B20610862108321900197809B0401
:400300009E40A340B680C00CC40CCE08D0CAD218D60ED806EA400C0130013E0158045F01812C830385C0881089C08AAC8E038F13900992D094DC9622970899809B409F0C88
:40034000A140A220A380A414A810A931AA40AB06AC0CAD31AE71AF0EB01FB10FB330B5C0B6E0B908BA80BB02BF04C003C704C9FFCA07CBFFCC40CD20CEF0CF05D008D6023C
:40038000D712D804D904DA04DB04DC22DD22DF01E040E1A8E240E3200040012004400A800B2010011298184019401D01200821052210288129603258388039164104504037
:4003C00052885B0869146B017090731089018B10C083C20CC40FCA0DCC0ECE0FD002D602E202B802BE01D804DF0118808C40E201E6101B012E01340137014020410449FF18
:400400004AFF4BFF4DA04F0450185280580459045A045B045C015D115F01604062C06440654066C068C06AC06CC06EC087018F0194029A03B002B201B501BF10C060C10516
:40044000C5D1C602C807C9FFCAFFCBFFCDAFCE0FCF04D018D405D804D904DA04DB04DC01DD11DF01E040E2C0E440E540E6C0E8C0EAC0ECC0EEC00E100F08100218041B10FB
:400480001E502002270830203C043F80400442804FA9568057405E405F097002A020A401C260C401CC04CE50D005D230D6D0E810A020A4010E01140126012C013001380254
:4004C0003B02580459045C225F018101821584808510862088138A0C8B018C208D048EC091089208940A9504961499089C409D049E20A003A102A214A4E0A504A8E0A9013D
:40050000AC13AD08AE04B0E0B108B310B40FB504B610B703B980BA20BE40BF14C061C105C6BCC70EC81CC9FFCAFFCBFFCEF0CF44D00CD401D804D904DA04DB04DC22DD2237
:40054000DF01E6C0EA40EB020008012002800382048008800A800B200F20101111141241174419A01A401B021E80224623082440274029202B9130103108334538883A01AD
:400580003B204380496050045140525059805A185B028004830289108B019020911493309680980199409B019C809D209E109F08A084A280B501C08FC22DC4AFCA0FCC0F4C
:4005C000CE0FD008D20CD60F82018A0292019A02B002B201BE05D418D804DB04DD20DF0100480102022005110708088109080A440D100E80108012161310188419261A059F
:400600001B101F052108230928012926308031083222386039023A144044420149114A0251105F01670A8880890190609240931094809C80A084A242A508A710A940AA106B
:40064000C05DC25FC40FCA0FCC0FCE0FD00DD20CD680D830E810300233803782CCF0511083809F82A402A780D420E280130257045A0184028510860195209B809F02A40241
:40068000A780C410D440D640E2506B809B80B784DC2002048204C00202028602C0024002D0082408C820B4049C02A002B402EC02101074028810A002B402C408DE04E20426
:4006C000E808000508010A010C0410071A031C0400BF000088880000400000000F44200002188000000800002FFF0000030040E30C3C23C223800C0001109000081C00E193
:40070000040000040CE7001800C023002C00101F0F38C0C000002208000040002504060001E0C0000AFFFFFF62A0F0410C00000000000000040404002202000100000000F0
:40074000000040020010301000101012000000000000000000000000000000000002020002004000800040888800880000000000000B0B00000000000400000400000000F9
:4007800000000000000000000000400000000000000000000000000000000000000000000000000000000000000000000000000000000000000000000000000000000000F9
:4007C00000000000000000000000000000000000000000000000000000000000000000000000000000000000000000000000000000000000000000000000000000000000F9
:4008000000000000000000000000000000000000000000000000000000000000000000000000000000000000000000000000000000000000000000000000000000000000B8
:400840000000000000000000000000000000000000000000000000000000000000000000000000000000000000000000000000000000000000000000000000000000000078
:400880000000000000000000000000000000000000000000000000000000000000000000000000000000000000000000000000000000000000000000000000000000000038
:0200000490006A
:0400000000004005B7
:0200000490105A
:04000000BC90ACAF55
:0200000490303A
:02000000462E8A
:0200000490402A
:4000000000000000000000000000000000000000000000000000000000000000000000000000000000000000000000000000000000000000000000000000000000000000C0
:400040000000000000000000000000000000000000000000000000000000000000000000000000000000000000000000000000000000000000000000000000000000000080
:400080000000000000000000000000000000000000000000000000000000000000000000000000000000000000000000000000000000000000000000000000000000000040
:4000C0000000000000000000000000000000000000000000000000000000000000000000000000000000000000000000000000000000000000000000000000000000000000
:0200000490501A
:0C00000000012E16106900012E355697E5
:00000001FF